:020000040800F2
:10000000700D002045010008B313000857120008C6
:10001000B113000853020008611600080000000038
:10002000000000000000000000000000ED140008C7
:100030005502000800000000B5130008EF14000886
:100040005F0100085F0100085F0100085F01000810
:100050005F0100085F0100085F0100085F01000800
:100060005F0100085F0100085F0100085F010008F0
:100070005F0100085F0100085F0100085F010008E0
:100080005F0100085F0100085F0100085F010008D0
:100090005F0100085F0100085F0100085F010008C0
:1000A0005F0100085F0100085F0100085F010008B0
:1000B0005F0100085F0100085F0100085F010008A0
:1000C0005F0100085F0100085F0100085F01000890
:1000D0005F0100085F0100085F0100085F01000880
:1000E0005F0100085F0100085F0100085F01000870
:1000F0005F0100085F0100085F0100085F01000860
:100100005F0100085F0100085F0100085F0100084F
:100110005F0100085F0100085F0100085F0100083F
:100120005F0100085F0100085F0100085F0100082F
:10013000DFF80CD000F06CF8004800470D230008F1
:10014000700D00200648804706480047FEE7FEE79E
:10015000FEE7FEE7FEE7FEE7FEE7FEE7FEE7FEE777
:100160004115000831010008202A04DB203A21FA59
:1001700002F00021704721FA02F3D040C2F12002C0
:100180009140084319467047D2B201E000F8012BB4
:10019000491EFBD270470022F6E710B513460A4607
:1001A00004461946FFF7F0FF204610BD2DE9F05F29
:1001B0000546002092469B468846064681464024D6
:1001C0001BE02846414647462246FFF7CDFF5346EF
:1001D0005A46C01A914110D311461846224600F0E3
:1001E00029F82D1A67EB01084F462246012000210D
:1001F00000F020F817EB00094E41201EA4F1010485
:10020000DFDC484631462A464346BDE8F09F000001
:10021000064C074D06E0E06840F0010394E8070053
:1002200098471034AC42F6D3FFF786FFB831000888
:10023000D8310008202A04DB203A00FA02F100201D
:1002400070479140C2F1200320FA03F31943904014
:100250007047FEE77047704770B5044600F010F92C
:100260000546601C02D004480078044400F008F9F8
:10027000401BA042FAD370BD5C0000202DE9F84F6E
:10028000DFF8C891002409F1040A0AF1040B23469F
:100290000F270BF1040ED1E00125A54006EA050267
:1002A000AA4276D1DFF8A8C14E68A6EB0C086645D5
:1002B0002BD00DDC032E34D005DC36B3012E19D043
:1002C000022E2FD11BE0112E16D0122E2AD119E0AA
:1002D000B8F5881F19D006DCB8F5803F15D0B8F501
:1002E000801F1FD111E0B8F5001F0ED0B8F5041F14
:1002F00018D10AE0CB6815E0CB681B1D12E0CB6873
:1003000008330FE0CB680C330CE08B682BB1012B6A
:100310004FF0080303D0456104E0042302E00561C7
:1003200000E00023FF2A01D8064601E000F10406A0
:100330004FEA840501D9A5F12005D6F8008007FA17
:1003400005FC28EA0C0803FA05F548EA0508C6F892
:1003500000804D68ED0070D53E4DAE6946F0010657
:10036000AE61AD6924F0030605F0010500953A4D34
:1003700006EB050CDCF80850A607360F07FA06F85E
:1003800025EA0805DFF8D480404503D14FF0000886
:1003900025E052E0DFF8C880404502D14FF0010867
:1003A0001DE0DFF8C080404502D14FF0020816E0A2
:1003B000DFF8B480404502D14FF003080FE0DFF8CA
:1003C000AC80404502D14FF0040808E0DFF8A0807F
:1003D000404502D14FF0050801E04FF0060808FA49
:1003E00006F848EA0508CCF808804D68D9F800609E
:1003F000ED034D4601D5164300E096432E604D684F
:10040000DAF80060AD03554601D5164300E0964387
:100410002E604D68DBF80060ED025D4601D51643A5
:1004200000E096432E604D68DEF80060AD02754630
:1004300001D5164300E096432E60641C0A681646F8
:10044000E2407FF429AFBDE8F88F000000040140CE
:10045000000011100010024000000140000801409F
:10046000000C014000100140001401400018014040
:10047000001C01400AB1016170470904FBE700005C
:1004800001488068704700005C00002002488168D5
:1004900002781144816070475C000020074810B565
:1004A000016841F010010160032000F067F80020AE
:1004B00000F006F800F024F8002010BD00200240F3
:1004C00070B50D4D04464FF47A712878B1FBF0F009
:1004D0000A490968B1FBF0F000F0E7FD48B9102CBB
:1004E00007D200222146501E00F028F800206C6040
:1004F00070BD012070BD00005C000020680000207D
:100500000C4808B5816941F001018161816901F000
:1005100001010091C16941F08051C161C06900F0E1
:10052000805000900448416821F0E06141F0007182
:10053000416008BD0010024000000140F0B40E4BC5
:100540001B680C46C3F30223C3F10705042D00D931
:100550000425191D072901D2002300E0DB1E012616
:1005600006FA05F1491E214099409E40761E16402C
:100570003143F0BC01F086B90CED00E0064900F013
:10058000070208684FF6FF03184040EA0220034ABA
:1005900010430860704700000CED00E00000FA0511
:1005A0002DE9F0470F46050061D0434E306800F05A
:1005B0000700B84209D2306820F0070038433060A5
:1005C000306800F00700B84251D128683B4C8107E1
:1005D00012D5400703D5606840F4E0606060287879
:1005E000000703D5606840F4605060606068A968E7
:1005F00020F0F000084360602878C00728D06868C1
:10060000012810D02168022810D0890700292EDA8D
:10061000616821F0030101436160FFF731FF80460B
:1006200041F288390DE021688903EFE78901EDE7A0
:10063000FFF726FFA0EB0801494502D90320BDE8DA
:10064000F0876068696800F00C00B0EB810FEFD1B3
:10065000306800F00700B8420BD9306820F007007E
:1006600038433060306800F00700B84201D0012004
:10067000E5E72878400705D56068E96820F4E06080
:10068000084360602878000706D56068296920F46F
:10069000605040EAC100606000F038F86168084AC4
:1006A000C1F30311515CC840064908600648006860
:1006B000FFF706FF0020C2E70020024000100240C2
:1006C000A0310008680000206000002004480549AF
:1006D00000684968044AC1F30221515CC840704770
:1006E0006800002000100240B031000804480549AD
:1006F00000684968044AC1F3C221515CC840704790
:100700006800002000100240B031000812A185B03E
:100710000FC98DE80F0014A0144A006804905168B6
:10072000134801F00C03042B10D0082B0ED1C1F399
:100730008343C9031DF803000AD5516804AAC1F315
:100740004041515C0A4A5043B0FBF1F005B070479C
:1007500008494843FAE700000203040506070809B0
:100760000A0B0C0D0E0F10100102000000100240C9
:1007700000127A0000093D002DE9F84F040070D006
:100780002078C04DC00749D06868C0F381000128B7
:1007900007D06868C0F38100022809D16868C003E7
:1007A00006D52868800339D560680028E7D035E091
:1007B0006068B0F5803F0BD010B1B0F5A02F11D01C
:1007C000286820F480302860286820F4802002E027
:1007D000286840F480302860606890B1FFF750FED0
:1007E00006460AE0286840F480202860F0E700BF51
:1007F000FFF746FE801B642873D828688003F7D56E
:100800000CE0FFF73DFE064605E000BFFFF738FEAF
:10081000801B6428F0D828688003F7D420789A4E8B
:1008200080074FF001094FF0000839D5686810F0D3
:100830000C0F07D06868C0F38100022809D16868EE
:10084000C00306D42868800714D52069012808D180
:1008500010E02069B0B1C6F80090FFF711FE07461E
:1008600005E00AE1FFF70CFEC01B0228C4D8286887
:100870008007F7D52868616920F0F80040EAC100D8
:1008800028600DE0C6F80080FFF7FAFD074604E097
:10089000FFF7F6FDC01B022823D828688007F7D48D
:1008A000207800072CD57948A169D9B1C0F800900B
:1008B000FFF7E6FD074604E0FFF7E2FDC01B022854
:1008C0000FD8686A8007F7D571484FF4FA5100686D
:1008D000B0FBF1F0009000BF0098411E0091FAD2E9
:1008E0000EE080E0C0F80080FFF7CAFD074604E094
:1008F000FFF7C6FDC01B022875D8686A8007F7D4C9
:100900002078400760D5E8690027C00008D4E8696E
:1009100040F08050E861E869012700F080500090C5
:100920005C480168C90513D40168834641F48071AD
:100930000160FFF7A5FD824606E000BFFFF7A0FDBE
:10094000A0EB0A0064284ED8DBF80000C005F5D5FE
:10095000E06801280AD008B1052813D0286A20F0E1
:1009600001002862286A20F0040002E0286A40F0B2
:1009700001002862E06841F2883B98B1FFF780FDF2
:1009800082460BE0286A40F004002862EEE700BFD0
:10099000FFF776FDA0EB0A0159455AD8286A80076F
:1009A000F6D50CE0FFF76CFD824605E0FFF768FD29
:1009B000A0EB0A0159454CD8286A8007F6D41FB12C
:1009C000E86920F08050E861E06988B36968C1F3A4
:1009D0008101022944D00228C6F8608004D0FFF7C4
:1009E0004FFD044638E034E0FFF74AFD074604E0D7
:1009F000FFF746FDC01B02282BD828688001F7D4DA
:100A0000206AB0F5803F05D16868A16820F4003005
:100A100008436860D4E908010843696821F4741147
:100A200008436860C6F86090FFF72AFD044606E0B8
:100A300025E000BFFFF724FD001B022809D8286825
:100A40008001F7D51BE000BFFFF71AFD001B02284D
:100A500002D90320BDE8F88F28688001F4D40EE0A5
:100A60000128F7D06868226A00F48031914204D1ED
:100A7000616A00F47010884201D00120EAE700208A
:100A8000E8E70000001002400000424280044242B9
:100A9000680000200070004070B5040009D0606A52
:100AA000002540B125616561A56294F8510040B10F
:100AB0000CE0012070BD6068B0F5827FF4D0E56184
:100AC000F2E784F85050204600F040F8022084F805
:100AD00051002068016821F040010160A08821894F
:100AE00000F4827001F404410843A18901F400611B
:100AF0000843217C01F002010843217D01F001013E
:100B00000843218B01F400710843217F01F0380173
:100B1000084394F8201001F080010843218D01F46E
:100B20000051084321680860A069042101EA1040CF
:100B3000216848602068C16921F40061C161656570
:100B4000012084F85100002070BD000070B586B00F
:100B500000240094019402940394264A01682648D4
:100B60000225032691421DD1816941F480518161A2
:100B7000816901F480510491816941F0040181612E
:100B800080691E4C00F004000490A020009069468B
:100B90002046FFF773FB4020CDE900056946039628
:100BA000204623E0164A914222D1C16941F4804196
:100BB000C161C16901F480410491816941F008017A
:100BC00081618069694600F0080004904FF420407C
:100BD000CDE900050B4D03962846FFF74FFB4FF478
:100BE0008040CDE90004694628460294FFF746FBA1
:100BF00006B070BD00300140001002400008014006
:100C000000380040000C01402DE9F84F04464068D0
:100C10000025984616460F464FF0040BB0F5827F2C
:100C200001D1A06888B194F85000012818D00120A3
:100C300084F85000FFF724FC814694F851004FF0EF
:100C4000000A01280ED0022582E084F851B0134634
:100C50000A462046CDF8008000F036F9BDE8F88F4E
:100C60000220FBE7002F72D0002E70D084F851B024
:100C7000C4F854A0A763A687E687C4F830A0A4F8F8
:100C800034A0A4F836A0C4F840A0C4F844A0A068DA
:100C9000B0F5004F09D12068016821F040010160E2
:100CA0002068016821F480410160206801684906DC
:100CB00003D4016841F040010160E068D8B139E037
:100CC00020688168C90709D0007BA16B0870A06B00
:100CD000401CA063E08F401EE0870CE0FFF7D0FBD4
:100CE000A0EB0901414503D3B8F1FF3F03D036E043
:100CF000B8F1000F33D0E08F0028E1D11DE020686B
:100D00008168C90709D0C068A16B0880A06B801CEE
:100D1000A063E08F401EE0870CE0FFF7B1FBA0EB83
:100D20000901414503D3B8F1FF3F03D017E0B8F103
:100D3000000F14D0E08F0028E1D14A4641462046FA
:100D400000F039FB08B120206065606D00B101251D
:100D5000012084F8510084F850A028467EE703253E
:100D6000F6E72DE9F84F044690F8500000271D469D
:100D70001646894601280DD04FF0010B84F850B07B
:100D8000FFF77EFB804694F85100BA46012804D054
:100D9000022793E00220BDE8F88FB9F1000F73D06D
:100DA000002E71D0032084F85100C4F854A0C4F878
:100DB0003090A686E686C4F838A0A4F83CA0A4F833
:100DC0003EA0C4F844A0C4F840A0A068B0F5004F0D
:100DD00009D12068016821F04001016020680168A4
:100DE00041F48041016020680168490603D401682C
:100DF00041F040010160E068B0F5006F606803D029
:100E000030B3012E24D041E008B1012E1CD1206B5B
:100E100021680088C86006E020688168890709D5D4
:100E2000216B0988C160206B801C2063E08E401E0E
:100E3000E08609E0FFF724FBA0EB0800A84202D3FC
:100E4000681C01D031E07DB3E08E0028E4D120E0C1
:100E5000206B21680078087306E0206881688907A4
:100E600009D5216B09780173206B401C2063E08E4B
:100E7000401EE0860AE0FFF703FBA0EB0800A84253
:100E800003D3681C02D010E017E06DB1E08E00289B
:100E9000E3D142462946204600F0BBFA08B12020A3
:100EA0006065A06818B106E0FFE7032706E0206848
:100EB000C16880680090606D00B1012784F851B06E
:100EC00084F850A0384666E72DE9F84F044690F8BC
:100ED000500000270A9E1D4692468B464FF001099E
:100EE00001280ED0012084F85000FFF7C9FA80468F
:100EF00094F85100616801280CD0B1F5827F07D1C8
:100F000002E00220BDE8F88FA16809B9042801D0E9
:100F10000227C2E0BBF1000F27D0BAF1000F24D0A6
:100F20001DB394F85100042802D0052084F8510024
:100F300000206065C4F838A0E587A587C4F830B004
:100F4000E586A5862064606420680168490603D4AC
:100F5000016841F040010160E068B0F5006F606831
:100F600005D0E8B3012D46D07FE0012795E008B118
:100F7000012D39D1206B21680088C860206B801C4E
:100F80002063E08E401EE0862EE02068816889079D
:100F90000FD5E18E69B1B9F1010F0AD1216B098832
:100FA000C160206B801C2063E08E401EE0864FF005
:100FB000000920688168C9070CD0E18F51B1C06871
:100FC000A16B0880A06B801CA063E08F401EE087AF
:100FD0004FF00109FFF754FAA0EB0800B04200E01F
:100FE00009E001D3701C50D1E08E0028CDD1E08FF4
:100FF0000028CAD13FE0206B216800780873206B7D
:10100000401C2063E08E401EE0862EE02068816850
:1010100089070FD5E18E69B1B9F1010F0AD1216BB2
:1010200009780173206B401C2063E08E401EE0862F
:101030004FF0000920688168C9070CD0E18F51B1D9
:10104000C068A16B0870A06B401CA063E08F401EBD
:10105000E0874FF00109FFF713FAA0EB0800B04258
:1010600002D3701C01D010E07EB1E08E0028CDD1FB
:10107000E08F0028CAD142463146204600F0C9F927
:1010800028B101272020606507E0032705E0A0685C
:1010900018B92068C16880680090012084F8510068
:1010A000002084F8500038462CE710B5401EB0F1FF
:1010B000807F01D3012010BD4FF0E02460610F213B
:1010C000601700F0DFFB0020A061072020610020F6
:1010D00010BD70B5040004D094F83900002510B19B
:1010E00006E0012070BD84F83850204600F022F858
:1010F000242084F839002068C16821F40051C160BF
:10110000204600F01FFA2068016921F49041016136
:101110002068416921F02A0141612068C16841F4D9
:101120000051C160E563202084F8390084F83A005A
:10113000002070BD30B585B0002400940194029465
:10114000039400681449884224D11448816941F409
:1011500080418161816901F480410491816941F09C
:101160000401816180690E4D00F0040004904FF489
:1011700000700090022001900320039069462846E9
:10118000FFF77CF82815CDE900046946284602944B
:10119000FFF774F805B030BD003801400010024080
:1011A000000801402DE9F843044690F839001F4635
:1011B00016460D4620284CD1C5B1BEB194F8380072
:1011C000012846D0012084F838004FF00008C4F808
:1011D0003C80212084F83900FFF752F9A68481462B
:1011E000E684A068B0F5805F03D004E00120BDE88C
:1011F000F883206928B12E465FF0000584F8388016
:101200000EE00026FAE78021204600F0F7F9A0B9A9
:10121000AEB116F8010B21684860E08C401EE084F6
:10122000E08C4B464FF0000200970028EBD14FF0C6
:101230004001204600F0E2F930B10320D7E735F84D
:10124000020BC0F30800E6E7202084F839000020F4
:10125000CDE70220CBE7FEE72DE9F04186B0002480
:1012600020480094019402940394816941F00401A0
:101270008161816901F004010491816941F00801F3
:101280008161816901F008010491816941F02001C7
:1012900081618069144F00F020004FF400450490F4
:1012A000002229463846FFF7E5F800950226012579
:1012B0000396CDE9015469463846FEF7DFFFDFF8B3
:1012C0002C802F03002239464046FFF7D3F80097C1
:1012D0000396CDE9015469464046FEF7CFFF06B0BC
:1012E000BDE8F0810010024000140140000C0140F4
:1012F0000F4810B50D49016000214FF400624160B4
:10130000C0E9021292100161C0E905120822C0E989
:101310000721416281620A21C162FFF7BDFB0028FB
:1013200003D0BDE81040FEF796BF10BD003001406D
:10133000800800200F4810B50D4901604FF48271FC
:10134000416000218160C1604FF400720161C0E919
:101350000512C1610162416281620A21C162FFF727
:101360009BFB002803D0BDE81040FEF774BF10BD02
:1013700000380040D80800200C4810B50A49016028
:101380004FF4E1314160002181600C22C160C0E96D
:1013900004128161C161FFF79CFE002803D0BDE803
:1013A0001040FEF758BF10BD003801403009002042
:1013B000FEE770477047F8B5044640684FF4827303
:1013C000984217D1A0684FF48065B0F5004F01D066
:1013D000A8420FD12068066826F0400606606068C3
:1013E000984207D1A068A84204D100920B4600227F
:1013F000012103E000920B4600228021204600F0EC
:1014000019F8002804D0606D40F0200060650320CA
:10141000F8BD38B50B46009204460022802100F04A
:1014200009F8002804D0606D40F0200060650320BA
:1014300038BD00002DE9F8431E4691468846044613
:10144000089DFFF71DF8401B351AFFF719F80746EE
:1014500025480068C0F3CB30684338E0701C37D0B3
:10146000FFF70EF8C01BA84203D215B1009860B375
:101470002CE02068416821F0E00141606068B0F52F
:10148000827F0BD1A068B0F5004F02D0B0F5806F1D
:1014900004D12068016821F040010160A06AB0F524
:1014A000005F09D12068016821F4005101602068C3
:1014B000016841F400510160012084F851000020CE
:1014C00084F850000320BDE8F8830025401E0090FA
:1014D0002068816838EA010004D000214945BDD167
:1014E0000020F0E70121F9E7680000207047FEF7CF
:1014F000CDBF30B58FB028216846FEF74CFE1421D1
:101500000AA8FEF748FE01210804CDE900100024D6
:10151000029402250491CDE907504FF4E0100990A0
:101520006846FFF729F90F20CDE90A056802CDE9E1
:101530000C4002210AA80E94FFF732F80FB030BD1C
:101540007047000070B5044600680169E26821F444
:101550004051114301612169A06808436169084352
:101560002168CA6841F20C639A430243CA6020684A
:101570004169A26921F44071114341611E4920680B
:10158000884202D1FFF7B2F801E0FFF79FF800EBC5
:10159000C00101EB0012606864218000B2FBF0F32F
:1015A000B3FBF1F36FF018067343B2FBF0F5B2FB37
:1015B000F0F605EB8305322303EB0515B5FBF1F5DA
:1015C000B6FBF1F605F0F00505EB0615B2FBF0F6FB
:1015D000B2FBF0F0B0FBF1F06FF01802504306EBF5
:1015E000800003EB0010B0FBF1F0216800F00F0069
:1015F0002844886070BD0000003801402DE9F041AA
:10160000984617460E460446069D1DE0681C1BD0F2
:101610002DB1FEF735FFA0EB0800A84214D92068D1
:10162000C16821F4D071C1602068416921F00101D5
:101630004161202084F8390084F83A00002084F8C1
:1016400038000320BDE8F0812068006836EA000019
:1016500004D00020B842D9D00020F3E70120F9E7F8
:10166000FEE700000A4601464FF0FF330148FFF74E
:10167000CBBA0000D808002008B501216846FFF762
:10168000F1FF9DF8000008BD00224FF48051014891
:10169000FEF7F0BE000C0140012211030148FEF7E5
:1016A000E9BE0000000C01400A4601464FF0FF333E
:1016B0000148FFF756BB0000D808002001B5012102
:1016C0006846FFF7F1FF08BDF8B5144C0546E06821
:1016D000804760698047616AC5F30740C5F3072604
:1016E00099B1A26A8AB18DF800008DF801608DF879
:1016F0000250032168469047E06980470546A0698B
:101700008047206980472846F8BD216A8847216ABA
:1017100030468847216AE8B28847EDE71800002084
:101720002DE9F8431A4C05461746E068884680477D
:1017300060698047616AC5F30740C5F30726A1B118
:10174000A26A92B18DF800008DF801608DF8025008
:10175000032168469047626A394640469047A0692F
:10176000804720698047BDE8F883216A8847216A5D
:1017700030468847216AE8B28847002505E0E069DD
:10178000804708F805006D1CADB2BD42F7D3E6E70F
:1017900018000020F8B5164C05460E46E068804754
:1017A00060698047A26A45F004058AB1280C8DF86B
:1017B0000000280A8DF801008DF802508DF80360B2
:1017C000042168469047A069804720698047F8BD9A
:1017D000216AC5F307408847216AC5F30720884777
:1017E000216AE8B28847216A30468847EBE7000063
:1017F00018000020F8B51A4C05461646E0680F465A
:10180000804760698047A26A45F004059AB1280CB8
:101810008DF80000280A8DF801008DF80250032190
:1018200068469047A26A314638469047A06980478B
:1018300020698047F8BD216AC5F307408847216ABF
:10184000C5F307208847216AE8B28847002504E0ED
:10185000216A785D88476D1CADB2B542F8D3E5E7E3
:10186000180000200FB4054B10B503A9044A0298D4
:1018700000F028F810BC5DF814FB00005D1F0008A4
:101880006C0000200907090E002804DB00F1E020AD
:1018900080F80014704700F00F0000F1E02080F89D
:1018A000141D704702E008C8121F08C1002AFAD1AF
:1018B00070477047002001E001C1121F002AFBD1D0
:1018C000704700002DE9FF4F8DB00F4605460026FA
:1018D00006E025280BD0DDE90F1290476D1C761C21
:1018E00028780028F5D111B03046BDE8F08F0024EB
:1018F000A246A1460122EC4900E0044315F8013F4D
:10190000203B02FA03F00842F7D128782A2810D0A9
:101910006FF02F022878A0F13001092914D80AEBC2
:101920008A0102EB410144F0020400EB010A6D1C44
:10193000F0E701CF5FEA000A03D544F40054CAF18E
:10194000000A44F002046D1C28782E2817D115F8DF
:10195000010F44F004042A280ED06FF02F022878DB
:10196000A0F1300109290AD809EB890102EB4101F4
:1019700000EB01096D1CF2E757F8049B6D1C2878F9
:101980006C280FD006DC4C2817D068280DD06A28A8
:1019900014D104E0742810D07A280FD10DE044F45B
:1019A00000140AE044F4801401E044F4401469781F
:1019B000814202D104F580146D1C6D1C2A786E2AB8
:1019C0001FD00CDC632A31D004DC002A8BD0582ACB
:1019D00011D1A3E0642A68D0692A0CD165E0732A8A
:1019E0002ED004DC6F2A73D0702A04D19BE0752AB4
:1019F0006FD0782A6ED01046DDE90F129047761C22
:101A000050E1C4F30250022806D0032809D004286C
:101A100001CF09D0066045E101CFF117C0E90061AF
:101A200040E101CF06803DE106703BE117F8040B71
:101A30008DF8000000208DF80100EB46012003E046
:101A400057F804BB4FF0FF3061074FF0000102D49C
:101A50000DE008F10101884649450FDA8045F8DBC1
:101A60001BF808100029F4D108E008F101018846AC
:101A70008142FADB1BF808100029F6D1DDE90F23BB
:101A8000AAEB08008146214600F036F9304400EB0D
:101A9000080604E0DDE90F121BF8010B9047B8F1CE
:101AA0000108F7D221464846F7E00A21C4F3025361
:101AB0004FF0000B0891022B04D001CFC117032B6C
:101AC00009D00AE0FF1D27F00707F7E8020108E048
:101AD00032E01FE020E000B2C117042B01D140B278
:101AE000C117031E71F1000307DA4FF0000CD0EBB1
:101AF0000C006CEB01012D2302E0230504D52B2300
:101B00008DF82430012303E0E30701D02023F7E719
:101B1000984658E00A2110E010210EE010204FF006
:101B2000000B08900CE010214FF0000B44F004046F
:101B30004FF00809089103E008214FF0000B0891CD
:101B4000C4F30253022B04D001CF0021032B06D093
:101B500006E0FF1D27F00707F7E8020103E080B267
:101B6000042B00D1C0B24FF0000823072BD5702AF8
:101B700007D0DDF820C08CF0100C5CEA0B0C05D00F
:101B80000EE040238DF82430012308E050EA0103E1
:101B900006D030238DF824308DF825200223984676
:101BA000DDF820C08CF0080C5CEA0B0C0BD150EA7D
:101BB000010301D1630706D530238DF824304FF09F
:101BC0000108A9F10109582A04D038A20B9208AAE9
:101BD0000A920BE03AA2F9E75B46089AFEF7E6FAAA
:101BE0000B9B9B5C0A9A521E0A92137050EA0102E8
:101BF000F2D10A98ADEB000000F1200B600702D58E
:101C000024F4803401E04FF00109D94502DDA9EB4D
:101C10000B0000E0002000EB0B0141440890AAEB10
:101C2000010AE00306D4DDE90F232146504600F007
:101C300063F806444FF0000908E009A911F809000B
:101C4000DDE90F12904709F10109761CC145F4DB6B
:101C5000E0030CD5DDE90F232146504600F04CF897
:101C6000064404E0DDE90F1230209047761C089905
:101C7000481E08900029F5DC08E00A980A990078C7
:101C8000491C0A91DDE90F129047761CBBF1000157
:101C9000ABF1010BF1DC21465046DDE90F2300F0EA
:101CA00019F806446D1C1BE6092801003031323357
:101CB0003435363738396162636465660000000088
:101CC0003031323334353637383941424344454672
:101CD000000000002DE9F041044600251E4617468D
:101CE000880404D405E039462020B0476D1C641EEA
:101CF000F9D52846BDE8F0812DE9F04104460025DC
:101D00001E469046C80301D5302700E020278804EE
:101D100004D505E041463846B0476D1C641EF9D530
:101D20002846BDE8F081000070B50446082802D9B5
:101D30004FF0FF3070BD4FF4847000EB4410054647
:101D40001021FFF727FD2846FFF7BEFC0028FAD137
:101D50004FF4027000EB44101F21FFF71BFD0D49EB
:101D60000120A0404A8882434A808A8882438A8030
:101D70000949002021F814000649891D08554FF42F
:101D8000427000EB44142046FFF79EFC0028FAD175
:101D9000012070BD000000207000002010B50C462E
:101DA00006281ED2DFE800F003070B1014182046A7
:101DB00001F0BCF813E0204601F02AF80FE020788B
:101DC000BDE8104001F0DEB801F04EF8207006E0EA
:101DD000204601F0E9F802E0204601F048F8002032
:101DE00010BD4FF0FF3010BD2DE9F0410C46002131
:101DF00002464F1E08464FF498554FF4A056102A3D
:101E000061D2DFE802F0080B17131A1E222C3643AA
:101E1000464A574E535A01F0E0F84BE014B12046C1
:101E200004F10801BDE8F04101F035B8208800F068
:101E3000BEFF3FE000F0CEFF05E0208801F068F82B
:101E400038E000F0D6FF208034E02088010A2846E0
:101E5000FFF7A0FC21783046FFF79CFC2AE03046D3
:101E6000FFF732FC06462846FFF72EFC06EB002063
:101E7000E9E7164882782270C27862700279A2700F
:101E80004279E27080792071617113E001F01EF9EE
:101E900010E0204601F02FF90CE0204601F0D7F8C1
:101EA00008E02078BDE8F04101F04AB901F001F9FD
:101EB00005E020700020BDE8F08101F0EFF8C0B22D
:101EC00041B2491CF5D13846F5E700001800002062
:101ED00070B50446082802D94FF0FF3070BD60018C
:101EE00001250830FFF7F0FB00F00F00012801D0BA
:101EF000A81F70BD4FF4847000EB44100646082103
:101F0000FFF748FC3046FFF7DFFB0028FAD1124804
:101F1000A5408188A9438180408805420CD00020DB
:101F200070BD3046FFF7D0FB00070DD52046FFF708
:101F3000FBFE6FF00C0070BD4FF4027000EB441616
:101F40004FF4427000EB44152846FFF7BDFB002814
:101F5000E7D1012070BD00000000002038B5044624
:101F60008DF800000223012269460248FFF71AF9A2
:101F7000204638BD300900202DE9F04142F20861C9
:101F800001EB401542F20871002601EB401428468F
:101F9000FFF79AFB07462046FFF796FB00EB07206A
:101FA00007043F0C09D02846FFF78EFB0646204663
:101FB000FFF78AFB00EB062086B2BE42E7D130462F
:101FC000BDE8F0812DE9F04142F2080101EB401536
:101FD00042F20811002601EB40142846FFF774FB7B
:101FE00007462046FFF770FB00EB072007043F0C75
:101FF00009D02846FFF768FB06462046FFF764FB3A
:1020000000EB062086B2BE42E7D13046BDE8F08143
:1020100070B50446082802D94FF0FF3070BD60014A
:102020000830FFF751FB00F00F00012802D06FF0DD
:10203000040070BD4FF4427000EB44100546FFF7FA
:1020400043FB132802D06FF0020070BD4FF4847080
:1020500000EB441006460221FFF79CFB3046FFF7D9
:1020600033FB0028FAD12846FFF72EFB142805D0B1
:102070002046FFF759FE6FF0030070BD012070BDD0
:102080002DE9FF4104464FF442701646884600256C
:1020900000EB4410FFF718FB002877D0132869D015
:1020A000172802D01C2879D15AE04FF4027000EBB7
:1020B00044100646FFF708FBC0072AD040F6084048
:1020C00000EB4410042203A9FFF72AFB41F2081099
:1020D00000EB4410FFF7F8FA074641F2080000EB66
:1020E0004410FFF7F1FA07EB00209DF80E2080B2B4
:1020F0009DF80F100092CDE901109DF80D309DF86C
:102100000C20214626A0FFF7ADFB30460121FFF74A
:1021100041FB2046FFF730FF02003FD04FF4006044
:10212000824200D902464146204600F025FA0028A6
:102130000EDD87B211E0781B82B208EB0501204664
:1021400000F0D4FB060006D52046FFF7EDFD304633
:1021500004B0BDE8F081284485B2AF42EBD11DE068
:102160002046FFF7B5FE0128F2D1214615A0FFF762
:1021700079FB13E03246214617A0FFF773FB204698
:10218000FFF746FF0128E3D108E0FFE700233246CE
:102190000121204600F0F8FCA042D9D10120D7E768
:1021A00025643A436F6E6E6563746564202D202547
:1021B000642E25642E25642E2564203A2025640D86
:1021C0000A00000025643A536F636B657420436C0A
:1021D0006F7365640D0A000025643A4C6973746579
:1021E0006E2C2054435020736572766572206C6F9C
:1021F0006F706261636B2C20706F7274205B25645A
:102200005D0D0A002DE9FE4306464FF44270144668
:10221000884600EB4610FFF757FA002839D02228ED
:1022200044D13046FFF7A8FE02003FD04FF40060D3
:10223000824200D9024602A8009001AB41463046D6
:1022400000F00CFA041E07DC0246314618A0FFF726
:1022500009FB2046BDE8FE8387B2002416E000BFDC
:10226000BDF808000090381B82B208EB040101ABF6
:10227000304600F0C9FB050006D50246314613A0E2
:10228000FFF7F0FA2846E5E7204484B2BC42E7D1E4
:102290000CE0002322460221304600F075FCB042DB
:1022A000D8D1224631460FA0FFF7DCFA0120D1E752
:1022B00025643A207265637666726F6D206572726E
:1022C0006F722E20256C640D0A00000025643A20F0
:1022D00073656E64746F206572726F722E20256C48
:1022E000640D0A0025643A4F70656E65642C2055B4
:1022F0004450206C6F6F706261636B2C20706F7242
:1023000074205B25645D0D0A0000000086B02C4B34
:102310000DF1040C0FCB8CE80F00FEF7BFF8FFF7B0
:10232000E8F8FEF799FFFEF7E3FFFFF725F8FFF760
:1023300001F82449244800F09BFA2449244800F07D
:10234000A9FA2449244800F0BBFA01A90120FFF7AB
:102350004BFD401C03D121A0FFF784FAFEE769463C
:102360000F20FFF741FD401C02D123A0FFF77AFAAE
:102370009DF800000028F2D026A0FFF773FA00F0C5
:102380005FF84FF4FA7441F2883540F6B8362046CB
:10239000FDF762FF2A4623490020FFF771FE010086
:1023A00002D521A0FFF75EFA32461E490120FFF751
:1023B00029FF0100EBD51CA0FFF754FAE7E7000066
:1023C000903100089916000889160008BD1600080B
:1023D00079160008A91600086516000857495A43DF
:1023E00048495020496E697469616C697A65642056
:1023F0006661696C2E0D0A00556E6B6E6F776E20EC
:10240000504859204C696E6B207374617574732E3B
:102410000D0A0000534F434B4554204552524F5232
:10242000203D310080000020534F434B4554204550
:1024300052524F52203A20256C640D0A00000000D1
:1024400010B586B020490020FFF7A8FC1E490120E6
:10245000FFF7A4FC03A90820FFF7C6FC03A91BA0F3
:10246000FFF700FA184CE078627921798DE80700CF
:10247000A378627821781BA0FFF7F4F9607A0090C6
:10248000237AE279A17921A0FFF7ECF9607C009032
:10249000237CE27BA17B22A0FFF7E4F9607B009024
:1024A000237BE27AA17A23A0FFF7DCF9607D00901C
:1024B000237DE27CA17C24A0FFF7D4F927A0FFF7BD
:1024C000D1F906B010BD0000440000200D0A3D3DCA
:1024D0003D202573204E455420434F4E46203D3D20
:1024E0003D0D0A004D41433A20253032583A2530FF
:1024F00032583A253032583A253032583A2530325F
:10250000583A253032580D0A000000005349503A1D
:102510002025642E25642E25642E25640D0A0000D6
:102520004741523A2025642E25642E25642E2564C9
:102530000D0A00005355423A2025642E25642E25AD
:10254000642E25640D0A0000444E533A2025642E63
:1025500025642E25642E25640D0A00003D3D3D3D79
:102560003D3D3D3D3D3D3D3D3D3D3D3D3D3D3D3D9B
:102570003D3D0D0A000000002DE9F74F14460546C9
:10258000082803D94FF0FF30BDE8FE8F680101260F
:102590000830FFF799F800F00F00012801D0B01FB4
:1025A000F2E724B341F6086000EB4510FFF78CF822
:1025B0004FF6FF7101EA8020A04200D204464FF49A
:1025C000427000EB451841F60870DFF88CA000EB74
:1025D000451B06FA05F92846FFF7CEFC064640469D
:1025E000FFF772F8172816D01C2803D00DE06FF003
:1025F0000D00C9E7CEB92846FFF7E4FC0746584668
:10260000FFF762F8B7EB802F05D12846FFF78CFB68
:102610006FF00600B8E7BAF8021019EA010F02D00D
:102620001EB90020B0E7002ED5D0A64200D2344615
:1026300022462846019900F035FB4FF4847000EBE8
:10264000451005464021FFF7A5F82846FFF73CF85E
:102650000028FAD1204697E7000000202DE9FF4F1F
:10266000002583B01F4690460446082803D9681EFB
:1026700007B0BDE8F08F60014FF0010A0830FFF7A6
:1026800023F8834600F00F00022806D0032804D068
:10269000042802D06FF00400EAE7B8F1000F05D07B
:1026A000DFF8C49139F8140018B11EE06FF00D0086
:1026B000DEE74FF4427000EB44160AFA04FA2046B3
:1026C000FFF75AFC05463046FEF7FEFF30B167497A
:1026D00049881AEA010F06D01DB106E06FF0030029
:1026E000C6E70020C4E7002DE9D00BF00701DFF8B2
:1026F0007CA14FF484704FF0800B0AF1060A00EBC6
:102700004416022922D003297CD0042952D029461C
:10271000204600F0F7FA29F8145030464021FFF720
:1027200039F83046FEF7D0FF0028FAD139F81410F6
:10273000491B0904090C29F8141003D01AF80410D5
:1027400041F001010AF80410284691E739F8140015
:102750004D4670BB08226946204600F0A3FA304679
:102760004021FFF717F83046FEF7AEFF0028FAD1F8
:102770009DF8000038709DF8010078709DF8020007
:10278000B8709DF80300F87010999DF80400088057
:102790009DF8051001EB0020109908809DF80600B7
:1027A0009DF807105BE02A462046049900F07AFA6B
:1027B000B3E72AE039F814004D4630BB02226946DF
:1027C000204600F06FFA30464021FEF7E3FF304626
:1027D000FEF77AFF0028FAD19DF800009DF801105D
:1027E0006FF0010202EB0020084480B240F2EA518F
:1027F00025F81400884206D92046FFF795FA6FF4B1
:102800007A7035E702E00AF804B003E039F8140002
:102810004D4630B135F8145040464545C3D90546BC
:10282000C1E706226946204600F03CFA30464021C6
:10283000FEF7B0FF3046FEF747FF0028FAD19DF8BB
:10284000000038709DF8010078709DF80200B870A3
:102850009DF80300F8709DF804009DF8051001EB49
:10286000002025F81400CEE77000002000000020B2
:10287000054A18B111B1C2E905017047034850611A
:10288000034890617047000018000020D32D000815
:10289000D12D0008074A10B513889C05FDD518B145
:1028A00011B1C2E9070110BD0348D06103481062AD
:1028B00010BD000018000020D32F0008D92F0008F9
:1028C000074A10B513889C05FDD518B111B1C2E9AE
:1028D000090110BD034850620348906210BD00001A
:1028E00018000020D12F0008D72F00082DE9F05F35
:1028F00015468B460646082803D94FF0FF30BDE841
:10290000F09F700101240830FEF7DEFE00F00F009A
:10291000012801D0A01FF2E775B14FF4427000EB1F
:1029200046100746FEF7D0FE6FF0060A172806D0BD
:102930001C2804D05046E2E76FF00D00DFE7DFF817
:10294000C480B440B8F80400044213D04FF40270BD
:1029500000EB46108146FEF7B7FE00F01F00C106EF
:1029600024D548461021FEF715FFB8F80410A143FE
:10297000A8F8041041F6087000EB4610FEF7A4FE1C
:102980004FF6FF7101EA8020854200D905463046A6
:10299000FFF718FB81463846FEF796FE17280DD044
:1029A0001C280BD03046FFF7BFF9C3E700070BD553
:1029B0003046FFF7B9F96FF00C00A0E7B8F8020055
:1029C000044203D04D4501D9002098E74D45DED89B
:1029D0002A465946304600F0B6F94FF4847000EBB1
:1029E000461006462021FEF7D5FE3046FEF76CFE67
:1029F0000028FAD1B8F8041028460C43A8F804407F
:102A00007DE70000000000202DE9F0471E46DDF8BC
:102A1000208015468A460446082803D94FF0FF3027
:102A2000BDE8F087670108374FF001093846FEF727
:102A30004BFE00F00F00022806D0032804D0042823
:102A400002D06FF00400EBE75DB13078717801EBF4
:102A50000020B17801EB0020F17811EB002003D0C9
:102A60000AE06FF00D00DBE73846FEF72DFE400769
:102A700002D46FF00B00D3E7B8F1000F07D138464E
:102A8000FEF722FE400702D46FF00A00C8E74FF4B9
:102A9000427000EB44100746FEF716FE422806D0AF
:102AA000222804D0322802D06FF00600B8E740F6A2
:102AB000084000EB441004223146FEF79BFE41F231
:102AC00008004FEA182100EB4410FEF763FE41F2C4
:102AD000081008F0FF0100EB4410FEF75BFE41F622
:102AE000087000EB4410FEF7EFFD4FF6FF7101EAAE
:102AF0008020854200D90546DFF8888009FA04F66F
:102B00002046FFF75FFA81463846FEF7DDFD38B113
:102B1000B8F80200064206D04D4504D900207FE7F0
:102B20006FF003007CE74D45EAD82A46514620461F
:102B300000F009F94FF4847000EB441006462021A0
:102B4000FEF728FE4FF4027000EB44143046FEF707
:102B5000BBFD0028FAD12046FEF7B6FD00F01F00AD
:102B6000C10605D520461021FEF714FE284657E77A
:102B70000007F0D520460821FEF70CFE6FF00C0090
:102B80004EE70000000000202DE9F8431D461746DF
:102B90000E460446082803D94FF0FF30BDE8F883FD
:102BA000012E08D0022E0ED0032E0CD0042E0AD0F7
:102BB0006FF00400F2E7042269464FF47060FEF7FC
:102BC000AFFD009848B169076FF00500E6D49DB1EC
:102BD000012E05D0022E0FD106E06FF00200DDE7D6
:102BE00015F0210FDAD007E0A90601D52906D5D5C1
:102BF000E90601D52906D1D52046FFF795F86001F1
:102C000005F0F0014FF0010831430830FEF7C2FD36
:102C1000224E57B93788781C80B2A0F57F413080AA
:102C2000F03902D14FF4404030804FF48160390ACE
:102C300000EB4410FEF7AEFD4FF4A160F9B200EBDB
:102C40004410FEF7A7FD4FF4847000EB44100746D4
:102C50000121FEF79FFD3846FEF736FD0028FAD128
:102C600008FA04F0718805F001028143A2400A438A
:102C70007280B1888143B1800949002021F8140095
:102C80000649891D08554FF4427000EB441528464B
:102C9000FEF71AFD0028FAD060B27FE7000000209E
:102CA000700000202DE9F0475FEA020889460646D9
:102CB00026D042F6081000EB46152846FEF704FD24
:102CC000074642F6080000EB46142046FEF7FCFCDF
:102CD00007EB002087B2380200EB46104246494617
:102CE0001830FEF71DFD07EB080086B2310A2046BA
:102CF000FEF750FDF1B22846BDE8F047FEF74ABDA9
:102D0000BDE8F0872DE9F041044642F6081000EBDB
:102D100044150E462846FEF7D7FC074642F6080043
:102D200000EB44142046FEF7CFFC07EB00203044B4
:102D300086B2310A2046FEF72DFDF1B22846BDE8E5
:102D4000F041FEF727BD2DE9F0475FEA020889460A
:102D5000064626D042F2085000EB46152846FEF7FC
:102D6000B3FC074642F2084000EB46142046FEF74B
:102D7000ABFC07EB002087B2380200EB461042465E
:102D800049461030FEF736FD07EB080086B2310ADF
:102D90002046FEF7FFFCF1B22846BDE8F047FEF7FB
:102DA000F9BCBDE8F087007870470170704710B536
:102DB000040A00F0F0014FF4A850FEF7EBFC2146A6
:102DC000BDE810404FF4B850FEF7E4BC70477047C0
:102DD0007047704710B54FF4A850FEF775FC00F02F
:102DE000F0044FF4B850FEF76FFC04EB002080B203
:102DF00010BD10B54FF4B050FEF766FC04464FF41A
:102E0000C050FEF761FC04EB002080B210BD000052
:102E100010B50446014606224FF41060FEF780FC10
:102E2000042204F10E019001FEF77AFC042204F161
:102E30000A014FF4A060FEF773FC0422A11D4FF4B9
:102E40007060FEF76DFC07480178A1744178E17469
:102E500081782175C07860750248401E0078A075A1
:102E600010BD0000110000200020FEF72DBC70B541
:102E700004464FF4D850FEF727FC20704FF4D05092
:102E8000FEF722FC05464FF4C850FEF71DFC05EB8B
:102E90000020608070BD2DE9F0410D4606460024FB
:102EA00000F09BF84FF0FF38AEB10022B05C204438
:102EB00044B2102C17DC521C52B2082AF6DB002454
:102EC00041F60877315D07EB4410FEF763FC641CA4
:102ED00064B2082CF6DBCDB1002108462A5C11440F
:102EE00049B2102902DD4046BDE8F081401C40B2E5
:102EF0000828F3DB002441F60866295D06EB441040
:102F0000FEF748FC641C64B2082CF6DB0020EBE7FB
:102F100010B5C1B2040A4FF4B050FEF73BFC214695
:102F2000BDE810404FF4C050FEF734BC10B5044665
:102F3000014606224FF41060FEF75CFC042204F107
:102F40000E019001FEF756FC042204F10A014FF431
:102F5000A060FEF74FFC0422A11D4FF47060FEF745
:102F600049FC0748A17C0170E17C4170217D8170A2
:102F7000617DC1700249A07D491E087010BD00002E
:102F80001100002010B5044630F03A0002D04FF096
:102F9000FF3010BD0020FEF797FB40EA040100203F
:102FA000FEF7F8FB002010BD10B5044601784FF481
:102FB000D850FEF7EFFB6088010A4FF4C850FEF7C7
:102FC000E9FBA178BDE810404FF4D050FEF7E2BB1A
:102FD00070470020704770477047F0B585B04FF4D8
:102FE0001064062269462046FEF79AFB04229501EA
:102FF00002A92846FEF794FB4FF4A066042203A919
:103000003046FEF78DFB4FF47067042204A9384662
:10301000FEF786FB80210020FEF7BCFB0020FEF7B8
:1030200053FB062269462046FEF7E4FB042202A970
:103030002846FEF7DFFB042203A93046FEF7DAFB41
:10304000042204A93846FEF7D5FB05B0F0BD10B543
:1030500004464FF43850FEF737FBC0F3801121705F
:1030600000F0380001220021202811D038280FD08C
:10307000617010280ED018280CD020280AD0A1701A
:10308000082809D0182807D0202805D0E17010BDE5
:103090006270EEE7A270F3E7E27010BD10B5002495
:1030A0004FF43850FEF710FBC00700D00124204633
:1030B00010BD10B500244FF43850FEF705FBC0F3E7
:1030C000C200062800D10124204610BD10B54FF4DF
:1030D00038542046FEF7F8FA20F080012046FEF72B
:1030E00059FB2046FEF7F0FA40F080012046BDE88B
:1030F0001040FEF74FBB10B502780021012A00D125
:1031000040214278012A06D0C2788078012A05D071
:1031100001280BD00CE041F0380109E0012802D071
:1031200041F0080104E041F0180101E041F0100114
:103130004FF43850FEF72EFBBDE81040FFF7C6BF36
:1031400070B504464FF438563046FEF7BDFA4106D6
:103150004FF0FF351AD520F03800012C10D040F088
:1031600038013046FEF716FBFFF7B0FF3046FEF79A
:10317000ABFA012C07D000F0380038B1002070BD48
:1031800040F03001EDE700F03000F6E7284670BD72
:10319000020202020202020202020202020202020F
:1031A00000000000000000000102030406070809F7
:1031B0000000000001020304D831000800000020D4
:1031C00070000000A41800084832000870000020B9
:1031D000000D0000B418000800C00000000000004E
:1031E00000000000000000000000000000000000DF
:1031F000010257353530300000000000CD2D0008A9
:10320000CF2D0008D32D0008D12D0008A72D0008D0
:10321000AB2D0008000000000000000000010203C8
:103220000405C0A80158FFFFFF00C0A8010108085D
:10323000080801000100000010000000000000006C
:083240000024F400000000006E
:0400000508000131BD
:00000001FF
