:020000040800F2
:10000000A00D0020450100087B220008CF20000839
:1000100079220008D50800083D25000800000000EE
:10002000000000000000000000000000B5230008F0
:10003000950A0008000000007D220008B723000890
:100040005F0100085F0100085F0100085F01000810
:100050005F0100085F0100085F0100085F01000800
:100060005F0100085F0100085F0100085F010008F0
:100070005F0100085F0100085F0100085F010008E0
:100080005F0100085F0100085F0100085F010008D0
:100090005F0100085F0100085F0100085F010008C0
:1000A0005F0100085F0100085F0100085F010008B0
:1000B0005F0100085F0100085F0100085F010008A0
:1000C0005F0100085F0100085F0100085F01000890
:1000D0005F0100085F0100085F0100085F01000880
:1000E0005F0100085F0100085F0100085F01000870
:1000F0005F0100085F0100085F0100085F01000860
:100100005F0100085F0100085F0100085F0100084F
:100110005F0100085F0100085F0100085F0100083F
:100120005F0100085F0100085F0100085F0100082F
:10013000DFF80CD000F03CFB0048004739360008DF
:10014000A00D00200648804706480047FEE7FEE76E
:10015000FEE7FEE7FEE7FEE7FEE7FEE7FEE7FEE777
:100160001D24000831010008202A04DB203A21FA6E
:1001700002F00021704721FA02F3D040C2F12002C0
:100180009140084319467047D2B201E000F8012BB4
:10019000491EFBD270470022F6E710B513460A4607
:1001A00004461946FFF7F0FF204610BD80EA010221
:1001B00010B502F00043400022D04A001FD0010ECB
:1001C00001EB1261C0F35600C2F3560240F4000086
:1001D00042F40002A0FB022000047F39140400D086
:1001E000401C50EA124001D44000491EC2B20C0625
:1001F00004EBD010401C4008802A02D003E000200D
:1002000010BD20F00100002900DA0020184310BDC5
:100210002DE9FE4F81EA030404F0004421F000417F
:1002200000944FF0000B23F0004350EA01045ED02D
:1002300052EA03045BD0C3F30A54C1F30A552C44B9
:10024000A4F2F3340194A0FB0254C1F3130141F46E
:100250008011C3F3130343F4801301FB024400FB3A
:10026000034E840A970A44EA815447EA8357A4FB61
:10027000076802958D0A05FB07854FEA932C04FB5E
:100280000C542705029D4FEA065847EA1637B5EB8E
:1002900008056EEB070C870E920E47EA811742EABB
:1002A0008312A7FB0201B6EB0B0164EB00042B0DDC
:1002B00043EA0C335E1844EB1C50DA465146E7FB28
:1002C0000201C5F313044FEA0B3343EA14534FEA18
:1002D0000432019C43EA0603A4F10C040294009C3E
:1002E000CDE900B400F0CFF803B0BDE8F08F0020F6
:1002F0000146F9E770B521F0004303430CD0C1F388
:100300000A550024D5EB040564EB0403D617AD1A97
:10031000B34102DB0020014670BD201841EB0251C1
:1003200070BD96230022114600F070B80EB540F261
:10033000334102910021CDE900110A460B4600F03D
:10034000A2F803B000BD00F0004230F000400AD037
:10035000C10D01F56071C0F3160042EA0151C208F7
:1003600040071143704700200146704730B50B46E7
:10037000014600202022012409E021FA02F59D42D5
:1003800005D303FA02F5491B04FA02F52844151EA9
:10039000A2F10102F1DC30BD2DE9F05F054600203D
:1003A00092469B4688460646814640241BE02846E6
:1003B000414647462246FFF7D7FE53465A46C01AE3
:1003C000914110D311461846224600F003FA2D1A27
:1003D00067EB01084F4622460120002100F0FAF9A0
:1003E00017EB00094E41201EA4F10104DFDC484652
:1003F00031462A464346BDE8F09F0029A8BF704712
:10040000401C490008BF20F00100704710B4B0FA4A
:1004100080FC00FA0CF050EA010404BF10BC7047E5
:1004200049B1CCF1200421FA04F411FA0CF118BFFF
:10043000012121430843A3EB0C01CB1D4FEA0061CE
:100440004FEA102042BF002010BC704700EBC350A1
:1004500010440029A4BF10BC7047401C490008BFCD
:1004600020F0010010BC704710B5141E73F1000499
:1004700008DA401C41F1000192185B411A4301D196
:1004800020F0010010BD2DE9F04D92469B4611B1C0
:10049000B1FA81F202E0B0FA80F22032904600F028
:1004A00099F904460F4640EA0A0041EA0B01534617
:1004B0005A46084313D0114653EA010019D0C8F137
:1004C00040025046FFF750FE05460E46504659463C
:1004D000424600F07FF9084305D0012004E02046A1
:1004E0003946BDE8F08D0020054346EAE0762C430E
:1004F00037430A986305E40AA0EB08000022FD0ACE
:1005000044EA47540A3002D500200146E9E70105D4
:1005100010196941DDE9084500196941BDE8F04D50
:10052000A2E72DE9FE4F804681EA0300C00F0C468A
:10053000009021F0004123F00045B8EB0200A941F2
:1005400005D24046214690461C460B46024623F003
:100550000040104347D0270DC7F30A00C3F30A51E8
:100560000290401A019040286BDAC3F3130040F464
:10057000801B0098924620B10023D2EB030A63EB64
:100580000B0B01985946C0F14002504600F022F989
:1005900006460D4650465946019A00F02AF910EBDE
:1005A00008006141002487EA115284EAE7731A4384
:1005B00040D0009A62B3019A012A4FEA075215DC33
:1005C000001B61EB02014FF0004202EA0752CDE945
:1005D0000042001C41F5801132462B46FFF753FFC5
:1005E00003B0BDE8F08F40462146F9E7001B61EB00
:1005F0000201001C41F5801300185B412018A2F590
:10060000001747EB030140EAD570B6196D4111E0C0
:100610006D084FEA360645EAC0754FEA0752001BDF
:1006200061EB0201001C41F5801149084FEA3000DE
:100630000019514132462B4603B0BDE8F04FFFF799
:1006400013BF0098012240000023D0EB020263EBAD
:10065000E073009821464FEAE074B8EB000061EBCC
:100660000401E9E783F000435BE781F0004158E7CC
:100670002DE9F04D81EA030404F0004B21F0004520
:1006800014464FF0000A23F0004150EA050220D042
:1006900054EA01021DD0C5F30A570246C5F31303FD
:1006A000C1F31300C1F30A5640F4801543F48013DC
:1006B000A7EB0608101BD64608F2FD3873EB0500C1
:1006C00002D308F1010801E092185B41B8F1000F74
:1006D00003DA00200146BDE8F08D00204FF48011C0
:1006E000064684460EE0171B73EB050705D3121B65
:1006F00063EB050306434CEA010C49084FEA30005E
:1007000092185B4150EA0107EDD152EA030012D082
:1007100082EA040083EA0501084305D0101BAB41BF
:1007200006D20122002306E000224FF0004302E03F
:100730006FF0010253101AEB06004CEB085110EB5E
:100740000A0041EB0B01BDE8F04DFFF78DBEC1F390
:100750000A52C1F3130140F2FF3341F480119A426F
:1007600002DA00200146704740F233439A42A2F277
:10077000334202DC5242FFF7F7BC00F02BB8000016
:1007800030B5041E71F1000404DB4FF00044404218
:1007900064EB0101141E73F1000405DB1C464FF0ED
:1007A0000043524263EB0403994208BF904230BDBC
:1007B000064C074D06E0E06840F0010394E80700AE
:1007C00098471034AC42F6D3FFF7B6FCB4450008A6
:1007D000D4450008202A04DB203A00FA02F1002068
:1007E00070479140C2F1200320FA03F3194390406F
:1007F0007047202A06DBCB17203A41FA02F043EA81
:10080000E07306E041FA02F3D040C2F120029140C9
:10081000084319467047000070B5044600688168B7
:10082000C943C9071CD1816821F00101816000F032
:1008300083FC05460FE000BF00F07EFC401B022851
:1008400009D9A06A40F01000A062E06A40F00100FF
:10085000E062012070BD20688068C043C007EBD013
:10086000002070BDF8B50026044600960068816837
:10087000C943C90728D0816841F00101816013484C
:1008800013490068B0FBF1F000E0401E0090002822
:10089000FBD100F051FC054611E000BF00F04CFC1C
:1008A000401B02280BD9A06A40F01000A062E06A49
:1008B00040F00100E06284F824600120F8BD206867
:1008C0008068C043C007E9D10020F8BD680000205F
:1008D00040420F00FEE700002DE9F34F87B00024EF
:1008E000DFF8A48101228346D603254602940394AF
:1008F0000494314647464046059400F018FC112008
:100900000296CDE903040320059002A9384600F0C1
:100910000DFB00223146384600F009FC0F2000F0A4
:10092000F3FA01223146384600F001FC03940494A6
:1009300002A938460296059400F0F8FA002742F220
:10094000107903E07F1CBFB24F456CD8314640465A
:1009500000F0E8FB0128F5D0B2460027464603E048
:100960007F1CBFB24F455ED8D0465146304600F09E
:10097000D9FB0128F4D1CA46C1460027B04603E09E
:100980007F1CBFB2574571D84946404600F0CAFBAC
:100990000128F5D000940020CDE90140C14600BFF8
:1009A0004FF0070A4FF4004800273E4600E0761C4F
:1009B0004146484600F0B6FB0128F8D100E07F1C14
:1009C0004146484600F0AEFB0128F8D0B74209D9AD
:1009D00002991DF80120012101FA0AF10A43029946
:1009E0000DF80120AAF1010000F0FF0ABAF1FF0F93
:1009F000DAD10298401CC0B202900528D0D39DF8ED
:100A000000009DF801109DF802609DF8032001444C
:100A1000324411449DF80420C9B2914226D108996C
:100A2000012901D039B321E0BDF8000040BAFFF739
:100A300078FC164C2146FFF7B9FB05469DF80200ED
:100A4000000606D4BDF8020040BAFFF76AFC214652
:100A500009E026F080008DF80200BDF8020040BADF
:100A6000FFF75FFC0A49FFF7A1FB0446CBE90054FE
:100A700009B0BDE8F08FFFF754FC05469DF8020071
:100A8000FFF74FFCF1E7000000140140CDCCCC3D56
:100A9000CDCCCCBD70477047F8B50024009490F8D9
:100AA00024202546012A12D0012280F824204A68F9
:100AB0001F23072A0DD20668776B521E02EB8202B3
:100AC00093409F430B6893401F43776319E00220D4
:100AD000F8BD06680D2A0AD2376BD21F02EB8202DC
:100AE00093409F430B6893401F43376309E0F76AC5
:100AF0000D3A02EB820293409F430B6893401F43E1
:100B0000F7620A68072306680A2A0AD3F7680A3ACE
:100B100002EB420293409F438B6893401F43F76070
:100B200008E0376902EB420293409F438B68934091
:100B30001F4337610A68102A01D0112A20D1124BB5
:100B400002689A4217D193681B0219D4936843F440
:100B5000000393600968102912D10C490C4A0968F6
:100B6000B1FBF2F101EB8101490000E0491E009167
:100B70000029FBD104E0816A41F020018162012457
:100B800080F824502046F8BD002401406800002071
:100B900040420F00806A70470068C06C70470000D8
:100BA0002DE9F04104004FF000057FD0A06A002637
:100BB00028B9E66284F82460204600F081F82046D7
:100BC000FFF72AFEA16AC90600D420B1A06A40F04E
:100BD0001000A0626AE0A16A21F4885141F002018C
:100BE000A162334923688B42E16904D1B1F5402FFA
:100BF00001D14FF40021277B4FF4807C41EA47026A
:100C000061680A43A168614508D0012906D0002126
:100C100094F814E0BEF1010F02D00AE06146F7E754
:100C2000C7B1A76A47F02007A762E76A47F0010744
:100C3000E7625F6827F469470F435F60236899683C
:100C40001C4F394011439960A16861450BD00129BF
:100C500009D00CE0DFF860E0A7690EEB47370F43DF
:100C600047F40061E5E7218A0D05A5F580152168A7
:100C7000CB6A23F470032B43CB62216889680F4B46
:100C80001940914208D1E662A16A21F0020141F0C7
:100C90000101A162BDE8F081A06A20F0020040F0ED
:100CA0001000A062E06A40F00100E0620120F1E77C
:100CB000003C0140FDF7E1FF00E0FFFFFE0E1FFFDB
:100CC00000B585B000210091019102910391006867
:100CD0000E49884218D10E48816941F40071816142
:100CE000816901F400710491816941F0040181611D
:100CF0008069694600F004000490022000900320FF
:100D00000190044800F012F905B000BD0024014034
:100D100000100240000801402DE9F84300260D466E
:100D20000446009600F008FA804620688168C905EC
:100D300008D5A06A40F02000A06284F82460012059
:100D4000BDE8F8834168C90503D4C06A10F4700F88
:100D500026D0022000F080FA38490968B1FBF0F78C
:100D60002068036936490B424FEA61014FEAA1123C
:100D70001BD1C3684FEA611C13EA0C0F15D103693C
:100D80000B4221D1C06810421ED114201FE0681C04
:100D900006D045B300F0D0F9A0EB0800A84222D855
:100DA000206800688007F2D52AE003690B4202D16F
:100DB000C168114206D0026922490A4206D1C068C0
:100DC000084203D1542002E0292000E0FC204743E0
:100DD000009813E0681C0ED02DB100F0ADF9A0EB27
:100DE0000800A84207D9A06A40F00400A06284F875
:100DF00024600320A4E70098401C0090B842E9D387
:100E000021686FF012000860A06A40F40070A062D0
:100E100020688068C0F3424007280CD1207B50B97D
:100E2000A06A20F48070A062A06AC00403D4A06A03
:100E300040F00100A062002082E70000680000206E
:100E4000244992244992240070B5044690F8240065
:100E500001280DD0012084F824002046FFF702FD70
:100E600002004FF0000005D084F82400104670BD49
:100E7000022070BDA16A40F20123994341F48071C0
:100E8000A1621F4D23681F49AB4218D10E6816F4AA
:100E9000702F14D0A66A46F48016A6620E687605F6
:100EA00005D5A66A26F4005646F48056A662A66AC0
:100EB000F6040AD5E66A26F00606E66206E0A66AA9
:100EC00026F48016A6625E68E9E7E06284F82400F2
:100ED0006FF00200186020688368C3F34243072B59
:100EE00005D1A84208D1096811F4702F04D0816897
:100EF00041F480118160B9E7816841F4A001F9E70C
:100F0000002801400424014070B5044600F014F9A3
:100F10000546601C02D004480078044400F00CF937
:100F2000401BA042FAD370BD5C0000202DE9F84FB1
:100F3000DFF8C891002409F1040A0AF1040B2346E2
:100F40000F270BF1040ED1E00125A54006EA0502AA
:100F5000AA4276D1DFF8A8C14E68A6EB0C08664518
:100F60002BD00DDC032E34D005DC36B3012E19D086
:100F7000022E2FD11BE0112E16D0122E2AD119E0ED
:100F8000B8F5881F19D006DCB8F5803F15D0B8F544
:100F9000801F1FD111E0B8F5001F0ED0B8F5041F57
:100FA00018D10AE0CB6815E0CB681B1D12E0CB68B6
:100FB00008330FE0CB680C330CE08B682BB1012BAE
:100FC0004FF0080303D0456104E0042302E005610B
:100FD00000E00023FF2A01D8064601E000F10406E4
:100FE0004FEA840501D9A5F12005D6F8008007FA5B
:100FF00005FC28EA0C0803FA05F548EA0508C6F8D6
:1010000000804D68ED0070D53E4DAE6946F001069A
:10101000AE61AD6924F0030605F0010500953A4D77
:1010200006EB050CDCF80850A607360F07FA06F8A1
:1010300025EA0805DFF8D480404503D14FF00008C9
:1010400025E052E0DFF8C880404502D14FF00108AA
:101050001DE0DFF8C080404502D14FF0020816E0E5
:10106000DFF8B480404502D14FF003080FE0DFF80D
:10107000AC80404502D14FF0040808E0DFF8A080C2
:10108000404502D14FF0050801E04FF0060808FA8C
:1010900006F848EA0508CCF808804D68D9F80060E1
:1010A000ED034D4601D5164300E096432E604D6892
:1010B000DAF80060AD03554601D5164300E09643CB
:1010C0002E604D68DBF80060ED025D4601D51643E9
:1010D00000E096432E604D68DEF80060AD02754674
:1010E00001D5164300E096432E60641C0A6816463C
:1010F000E2407FF429AFBDE8F88F00000004014012
:1011000000001110001002400000014000080140E2
:10111000000C014000100140001401400018014083
:10112000001C01408068084000D0012070470AB1CF
:10113000016170470904FBE70148806870470000BF
:101140005C00002002488168027811448160704789
:101150005C000020074810B5016841F010010160F3
:10116000032000F067F8002000F006F800F024F8F3
:10117000002010BD0020024070B50D4D04464FF414
:101180007A712878B1FBF0F00A490968B1FBF0F0F8
:1011900000F0C7FE48B9102C07D200222146501E8D
:1011A00000F028F800206C6070BD012070BD0000C8
:1011B0005C000020680000200C4808B5816941F0FF
:1011C00001018161816901F001010091C16941F072
:1011D0008051C161C06900F08050009004484168AE
:1011E00021F0E06141F08061416008BD00100240E3
:1011F00000000140F0B40E4B1B680C46C3F3022301
:10120000C3F10705042D00D90425191D072901D2B2
:10121000002300E0DB1E012606FA05F1491E2140ED
:1012200099409E40761E16403143F0BC01F098BABA
:101230000CED00E0064900F0070208684FF6FF03D6
:10124000184040EA0220034A10430860704700003B
:101250000CED00E00000FA0510B52CA401461DCCF1
:1012600086B08DE81D002DA02D4C00680490002054
:1012700004292FD00BDC01292FD0022928D100F01E
:1012800071F96168C1F38131491C49001EE00829E8
:1012900020D010291CD161682268D20118D5C1F371
:1012A0008342C9031DF8020009D5616804AAC1F38D
:1012B0004041515C1B4AB2FBF1F1484301E01A493D
:1012C00048436168490203D440000321B0FBF1F0B8
:1012D00006B010BD00F056F9FAE7226AC2F3012108
:1012E000012903D1920701D5C803F1E7022905D1ED
:1012F000626A920702D549F64040E9E70329E7D13F
:1013000021688903E4D54FF22440E1E70203040594
:10131000060708090A0B0C0D0E0F10100102000041
:101320000010024000127A0000093D002DE9F84348
:1013300005460078354CC00754D0E0690026C0004F
:1013400008D4E06940F08050E061E069012600F0D7
:10135000805000902E480168C90512D4016880466B
:1013600041F480710160FFF7E7FE074605E000BF2A
:10137000FFF7E2FEC01B642823D8D8F80000C005A0
:10138000F6D5206A10F4407021D0A98801F440718C
:1013900081421CD0206A1F49012220F440700A605B
:1013A00000220A602062C00711D0FFF7C5FE074681
:1013B00041F2883808E000BFFFF7BEFEC11B41457F
:1013C00002D90320BDE8F883206A8007F4D5206A9B
:1013D000696820F44070084320621EB1E06920F083
:1013E0008050E0612878800705D56068A96820F4FE
:1013F0004040084360602878C00605D56068696988
:1014000020F48000084360600020DBE70010024009
:1014100000700040400442422DE9F0470F460500AD
:1014200061D0434E306800F00700B84209D23068FE
:1014300020F0070038433060306800F00700B84201
:1014400051D128683B4C810712D5400703D560680D
:1014500040F4E06060602878000703D5606840F4DD
:10146000605060606068A96820F0F0000843606028
:101470002878C00728D06868012810D02168022881
:1014800010D0890700292EDA616821F00301014399
:101490006160FFF751FE804641F288390DE0216816
:1014A0008903EFE78901EDE7FFF746FEA0EB0801AE
:1014B000494502D90320BDE8F0876068696800F0FB
:1014C0000C00B0EB810FEFD1306800F00700B8429C
:1014D0000BD9306820F0070038433060306800F0E6
:1014E0000700B84201D00120E5E72878400705D57C
:1014F0006068E96820F4E0600843606028780007CD
:1015000006D56068296920F4605040EAC100606037
:1015100000F038F86168084AC1F30311515CC84013
:101520000649086006480068FFF726FE0020C2E76B
:1015300000200240001002409C4500086800002086
:10154000600000200448054900684968044AC1F366
:101550000221515CC8407047680000200010024022
:10156000AC4500080448054900684968044AC1F3CD
:10157000C221515CC8407047680000200010024042
:10158000AC45000812A185B00FC98DE80F0014A06A
:10159000144A006804905168134801F00C03042BAE
:1015A00010D0082B0ED1C1F38343C9031DF80300EB
:1015B0000AD5516804AAC1F34041515C0A4A50431C
:1015C000B0FBF1F005B0704708494843FAE7000066
:1015D00002030405060708090A0B0C0D0E0F101074
:1015E000010200000010024000127A0000093D00D4
:1015F0002DE9F84F040070D02078C04DC00749D0C5
:101600006868C0F38100012807D06868C0F38100D2
:10161000022809D16868C00306D52868800339D537
:1016200060680028E7D035E06068B0F5803F0BD0F7
:1016300010B1B0F5A02F11D0286820F480302860B8
:10164000286820F4802002E0286840F48030286078
:10165000606890B1FFF770FD06460AE0286840F424
:1016600080202860F0E700BFFFF766FD801B64283C
:1016700073D828688003F7D50CE0FFF75DFD0646B8
:1016800005E000BFFFF758FD801B6428F0D82868EC
:101690008003F7D420789A4E80074FF001094FF06D
:1016A000000839D5686810F00C0F07D06868C0F3DF
:1016B0008100022809D16868C00306D42868800721
:1016C00014D52069012808D110E02069B0B1C6F80E
:1016D0000090FFF731FD074605E00AE1FFF72CFD1A
:1016E000C01B0228C4D828688007F7D5286861691C
:1016F00020F0F80040EAC10028600DE0C6F8008044
:10170000FFF71AFD074604E0FFF716FDC01B02288D
:1017100023D828688007F7D4207800072CD579488B
:10172000A169D9B1C0F80090FFF706FD074604E0B3
:10173000FFF702FDC01B02280FD8686A8007F7D5A3
:1017400071484FF4FA510068B0FBF1F0009000BF0F
:101750000098411E0091FAD20EE080E0C0F80080AF
:10176000FFF7EAFC074604E0FFF7E6FCC01B02288F
:1017700075D8686A8007F7D42078400760D5E86993
:101780000027C00008D4E86940F08050E861E869AB
:10179000012700F0805000905C480168C90513D40F
:1017A0000168834641F480710160FFF7C5FC824601
:1017B00006E000BFFFF7C0FCA0EB0A0064284ED88B
:1017C000DBF80000C005F5D5E06801280AD008B1B3
:1017D000052813D0286A20F001002862286A20F02A
:1017E000040002E0286A40F001002862E06841F24B
:1017F000883B98B1FFF7A0FC82460BE0286A40F0D6
:1018000004002862EEE700BFFFF796FCA0EB0A0198
:1018100059455AD8286A8007F6D50CE0FFF78CFCAA
:10182000824605E0FFF788FCA0EB0A0159454CD839
:10183000286A8007F6D41FB1E86920F08050E8617B
:10184000E06988B36968C1F38101022944D00228A4
:10185000C6F8608004D0FFF76FFC044638E034E03F
:10186000FFF76AFC074604E0FFF766FCC01B02288E
:101870002BD828688001F7D4206AB0F5803F05D1C5
:101880006868A16820F4003008436860D4E9080162
:101890000843696821F4741108436860C6F86090D1
:1018A000FFF74AFC044606E025E000BFFFF744FCD2
:1018B000001B022809D828688001F7D51BE000BF6B
:1018C000FFF73AFC001B022802D90320BDE8F88F7D
:1018D00028688001F4D40EE00128F7D06868226AF5
:1018E00000F48031914204D1616A00F470108842A2
:1018F00001D00120EAE70020E8E7000000100240E4
:101900000000424280044242680000200070004013
:1019100070B5040009D0606A002540B12561656199
:10192000A56294F8510040B10CE0012070BD6068E0
:10193000B0F5827FF4D0E561F2E784F8505020469C
:1019400000F040F8022084F851002068016821F07E
:1019500040010160A088218900F4827001F40441F3
:101960000843A18901F400610843217C01F00201D0
:101970000843217D01F001010843218B01F400712E
:101980000843217F01F03801084394F8201001F04A
:1019900080010843218D01F400510843216808604B
:1019A000A069042101EA1040216848602068C169EB
:1019B00021F40061C1616565012084F851000020B7
:1019C00070BD000070B586B00024009401940294AC
:1019D0000394264A016826480225032691421DD118
:1019E000816941F480518161816901F480510491E0
:1019F000816941F00401816180691E4C00F004009E
:101A00000490A020009069462046FFF78FFA4020FE
:101A1000CDE9000569460396204623E0164A914227
:101A200022D1C16941F48041C161C16901F48041A1
:101A30000491816941F0080181618069694600F083
:101A4000080004904FF42040CDE900050B4D0396AB
:101A50002846FFF76BFA4FF48040CDE90004694651
:101A600028460294FFF762FA06B070BD00300140CC
:101A7000001002400008014000380040000C014006
:101A80002DE9F84F044640680025984616460F4653
:101A90004FF0040BB0F5827F01D1A06888B194F8B3
:101AA0005000012818D0012084F85000FFF744FBB3
:101AB000814694F851004FF0000A01280ED002250B
:101AC00082E084F851B013460A462046CDF80080E3
:101AD00000F036F9BDE8F88F0220FBE7002F72D046
:101AE000002E70D084F851B0C4F854A0A763A68724
:101AF000E687C4F830A0A4F834A0A4F836A0C4F84F
:101B000040A0C4F844A0A068B0F5004F09D12068F7
:101B1000016821F0400101602068016821F48041E2
:101B2000016020680168490603D4016841F0400162
:101B30000160E068D8B139E020688168C90709D040
:101B4000007BA16B0870A06B401CA063E08F401E5F
:101B5000E0870CE0FFF7F0FAA0EB0901414503D361
:101B6000B8F1FF3F03D036E0B8F1000F33D0E08F7B
:101B70000028E1D11DE020688168C90709D0C0684C
:101B8000A16B0880A06B801CA063E08F401EE087E3
:101B90000CE0FFF7D1FAA0EB0901414503D3B8F1FE
:101BA000FF3F03D017E0B8F1000F14D0E08F0028FA
:101BB000E1D14A464146204600F061FB08B12020B1
:101BC0006065606D00B10125012084F8510084F842
:101BD00050A028467EE70325F6E72DE9F84F044696
:101BE00090F8500000271D461646894601280DD062
:101BF0004FF0010B84F850B0FFF79EFA804694F83E
:101C00005100BA46012804D0022793E00220BDE823
:101C1000F88FB9F1000F73D0002E71D0032084F833
:101C20005100C4F854A0C4F83090A686E686C4F8E3
:101C300038A0A4F83CA0A4F83EA0C4F844A0C4F87E
:101C400040A0A068B0F5004F09D12068016821F0DC
:101C5000400101602068016841F480410160206812
:101C60000168490603D4016841F040010160E06861
:101C7000B0F5006F606803D030B3012E24D041E08E
:101C800008B1012E1CD1206B21680088C86006E0D5
:101C900020688168890709D5216B0988C160206B9C
:101CA000801C2063E08E401EE08609E0FFF744FAC6
:101CB000A0EB0800A84202D3681C01D031E07DB33C
:101CC000E08E0028E4D120E0206B216800780873C2
:101CD00006E020688168890709D5216B09780173BE
:101CE000206B401C2063E08E401EE0860AE0FFF778
:101CF00023FAA0EB0800A84203D3681C02D010E02E
:101D000017E06DB1E08E0028E3D142462946204617
:101D100000F0E3FA08B120206065A06818B106E081
:101D2000FFE7032706E02068C16880680090606DC7
:101D300000B1012784F851B084F850A0384666E716
:101D40002DE9F84F044690F8500000270A9E1D46E2
:101D500092468B464FF0010901280ED0012084F8ED
:101D60005000FFF7E9F9804694F8510061680128B6
:101D70000CD0B1F5827F07D102E00220BDE8F88FD8
:101D8000A16809B9042801D00227C2E0BBF1000F05
:101D900027D0BAF1000F24D01DB394F851000428C5
:101DA00002D0052084F8510000206065C4F838A0F6
:101DB000E587A587C4F830B0E586A5862064606411
:101DC00020680168490603D4016841F040010160C0
:101DD000E068B0F5006F606805D0E8B3012D46D02B
:101DE0007FE0012795E008B1012D39D1206B2168F2
:101DF0000088C860206B801C2063E08E401EE08657
:101E00002EE02068816889070FD5E18E69B1B9F1AC
:101E1000010F0AD1216B0988C160206B801C2063EF
:101E2000E08E401EE0864FF0000920688168C907F7
:101E30000CD0E18F51B1C068A16B0880A06B801CF1
:101E4000A063E08F401EE0874FF00109FFF774F9AF
:101E5000A0EB0800B04200E009E001D3701C50D1B3
:101E6000E08E0028CDD1E08F0028CAD13FE0206B62
:101E7000216800780873206B401C2063E08E401EB0
:101E8000E0862EE02068816889070FD5E18E69B170
:101E9000B9F1010F0AD1216B09780173206B401C45
:101EA0002063E08E401EE0864FF0000920688168C4
:101EB000C9070CD0E18F51B1C068A16B0870A06B4D
:101EC000401CA063E08F401EE0874FF00109FFF740
:101ED00033F9A0EB0800B04202D3701C01D010E02F
:101EE0007EB1E08E0028CDD1E08F0028CAD14246D5
:101EF0003146204600F0F1F928B101272020606525
:101F000007E0032705E0A06818B92068C168806869
:101F10000090012084F85100002084F850003846D9
:101F20002CE710B5401EB0F1807F01D3012010BD19
:101F30004FF0E02460610F21601700F011FC0020D9
:101F4000A06107202061002010BD70B5040004D0FE
:101F500094F83900002510B106E0012070BD84F826
:101F60003850204600F022F8242084F839002068F8
:101F7000C16821F40051C160204600F051FA206888
:101F8000016921F4904101612068416921F02A0131
:101F900041612068C16841F40051C160E5632020BF
:101FA00084F8390084F83A00002070BD30B585B05F
:101FB0000024009401940294039400681449884218
:101FC00024D11448816941F480418161816901F41F
:101FD00080410491816941F00401816180690E4D65
:101FE00000F0040004904FF4007000900220019073
:101FF0000320039069462846FEF798FF2815CDE98F
:102000000004694628460294FEF790FF05B030BDF3
:102010000038014000100240000801402DE9F8435B
:10202000044690F839001F4616460D4620284CD12C
:10203000C5B1BEB194F83800012846D0012084F81B
:1020400038004FF00008C4F83C80212084F83900A3
:10205000FFF772F8A6848146E684A068B0F5805F39
:1020600003D004E00120BDE8F883206928B12E46A2
:102070005FF0000584F838800EE00026FAE7802142
:10208000204600F029FAA0B9AEB116F8010B21687C
:102090004860E08C401EE084E08C4B464FF000022C
:1020A00000970028EBD14FF04001204600F014FAD1
:1020B00030B10320D7E735F8020BC0F30800E6E79C
:1020C000202084F839000020CDE70220CBE7FEE78E
:1020D0003EB5002410480094019402940D49846098
:1020E000016001250573047505614FF460214460AA
:1020F000C161FEF755FD08B1FEF7CDFC0095CDE9B5
:10210000015469460448FEF7C7FC002801D0FEF7D9
:10211000C2FC3EBD00240140700800202DE9F043C0
:1021200085B00024214800940194029403948169AD
:1021300041F004018161816901F004010491816928
:1021400041F008018161816901F008010491816910
:1021500041F0200181618069DFF8548000F02000A7
:102160004FF400450490002229464046FEF7DFFF69
:10217000DFF84090EF10002239464846FEF7D7FFBF
:102180000095022601250396CDE901546946404693
:10219000FEF7CCFE00970396CDE901546946484608
:1021A000FEF7C4FE05B0BDE8F08300000010024059
:1021B00000140140000C01400F4810B50D490160AA
:1021C00000214FF400624160C0E9021292100161E7
:1021D000C0E905120822C0E90721416281620A2193
:1021E000C162FFF795FB002803D0BDE81040FEF761
:1021F00052BC10BD00300140A00800200F4810B5AF
:102200000D4901604FF48271416000218160C1601D
:102210004FF400720161C0E90512C16101624162BF
:1022200081620A21C162FFF773FB002803D0BDE879
:102230001040FEF730BC10BD00380040F808002008
:102240000C4810B50A4901604FF4E13141600021AA
:1022500081600C22C160C0E904128161C161FFF795
:1022600074FE002803D0BDE81040FEF714BC10BD7A
:102270000038014050090020FEE770477047F8B56C
:10228000044640684FF48273984217D1A0684FF417
:102290008065B0F5004F01D0A8420FD120680668D4
:1022A00026F0400606606068984207D1A068A84200
:1022B00004D100920B460022012103E000920B465C
:1022C00000228021204600F019F8002804D0606D1B
:1022D00040F0200060650320F8BD38B50B46009241
:1022E00004460022802100F009F8002804D0606D27
:1022F00040F020006065032038BD00002DE9F84360
:102300001E46914688460446089DFEF715FF401B71
:10231000351AFEF711FF074625480068C0F3CB3099
:10232000684338E0701C37D0FEF706FFC01BA84298
:1023300003D215B1009860B32CE02068416821F009
:10234000E00141606068B0F5827F0BD1A068B0F514
:10235000004F02D0B0F5806F04D12068016821F0F1
:1023600040010160A06AB0F5005F09D120680168F2
:1023700021F4005101602068016841F400510160BE
:10238000012084F85100002084F850000320BDE8AB
:10239000F8830025401E00902068816838EA01001B
:1023A00004D000214945BDD10020F0E70121F9E723
:1023B000680000207047FEF7C5BE30B595B02821F3
:1023C0006846FDF7E8FE14210AA8FDF7E4FE18218F
:1023D0000FA8FDF7E0FE01210804CDE9001000245C
:1023E000029402250491CDE907504FF4E0100990C2
:1023F0006846FFF7FDF80F20CDE90A056802CDE930
:102400000C4002210AA80E94FFF706F8A8031190C9
:102410000F950FA8FEF78AFF15B030BD704700007A
:1024200070B5044600680169E26821F44051114327
:1024300001612169A0680843616908432168CA688D
:1024400041F20C639A430243CA6020684169A26961
:1024500021F44071114341611E492068884202D134
:10246000FFF780F801E0FFF76DF800EBC00101EB2A
:102470000012606864218000B2FBF0F3B3FBF1F35B
:102480006FF018067343B2FBF0F5B2FBF0F605EB04
:102490008305322303EB0515B5FBF1F5B6FBF1F629
:1024A00005F0F00505EB0615B2FBF0F6B2FBF0F017
:1024B000B0FBF1F06FF01802504306EB800003EB25
:1024C0000010B0FBF1F0216800F00F002844886094
:1024D00070BD0000003801402DE9F04198461746D4
:1024E0000E460446069D1DE0681C1BD02DB1FEF76C
:1024F00023FEA0EB0800A84214D92068C16821F48B
:10250000D071C1602068416921F001014161202042
:1025100084F8390084F83A00002084F83800032059
:10252000BDE8F0812068006836EA000004D0002091
:10253000B842D9D00020F3E70120F9E7FEE7000018
:102540000A4601464FF0FF330148FFF799BA0000F1
:10255000F808002008B501216846FFF7F1FF9DF853
:10256000000008BD00224FF480510148FEF7DFBD96
:10257000000C0140012211030148FEF7D8BD000004
:10258000000C01400A4601464FF0FF330148FFF7B7
:1025900024BB0000F808002001B501216846FFF7C0
:1025A000F1FF08BDF8B5144C0546E0688047606946
:1025B0008047616AC5F30740C5F3072699B1A26A4F
:1025C0008AB18DF800008DF801608DF8025003216A
:1025D00068469047E06980470546A06980472069C2
:1025E00080472846F8BD216A8847216A30468847D7
:1025F000216AE8B28847EDE7300000202DE9F84372
:102600001A4C05461746E06888468047606980474F
:10261000616AC5F30740C5F30726A1B1A26A92B16A
:102620008DF800008DF801608DF802500321684696
:102630009047626A394640469047A06980472069C2
:102640008047BDE8F883216A8847216A3046884779
:10265000216AE8B28847002505E0E069804708F86C
:1026600005006D1CADB2BD42F7D3E6E73000002097
:10267000F8B5164C05460E46E0688047606980470D
:10268000A26A45F004058AB1280C8DF80000280ADA
:102690008DF801008DF802508DF803600421684622
:1026A0009047A069804720698047F8BD216AC5F33B
:1026B00007408847216AC5F307208847216AE8B2A6
:1026C0008847216A30468847EBE700003000002049
:1026D000F8B51A4C05461646E0680F468047606913
:1026E0008047A26A45F004059AB1280C8DF80000D5
:1026F000280A8DF801008DF80250032168469047A2
:10270000A26A314638469047A069804720698047D1
:10271000F8BD216AC5F307408847216AC5F3072041
:102720008847216AE8B28847002504E0216A785D7D
:1027300088476D1CADB2B542F8D3E5E73000002004
:102740000FB4054B10B503A9044A029800F0EAF84B
:1027500010BC5DF814FB0000893200086C000020FA
:102760000907090E002804DB00F1E02080F80014BE
:10277000704700F00F0000F1E02080F8141D704752
:1027800002E008C8121F08C1002AFAD1704770473A
:10279000002001E001C1121F002AFBD17047000098
:1027A0002DE9FF5F82B00021DDE90430020DDDF884
:1027B00040B0034318D044F61050A2F2FF32424317
:1027C0001514119801281FD0A5EB0B00401C5FEADF
:1027D000000A4FF000064E4FDFF83891B0465046E1
:1027E00015D5CAF1000413E0119801244AA3012869
:1027F00001D16FEA0B010298119AC0E90031C0E9DA
:10280000024206B0BDE8F09FCBF10000DFE70446CE
:102810000021404A491842EB0450CDE9001012E073
:10282000E00707D032463B4640464946FDF7F0FCFC
:102830008046894632463B4610461946FDF7E8FC7D
:1028400006460F466410002CEAD1DDE90401DDE9FB
:102850000023BAF1000F06DAFDF7DAFC42464B46D8
:10286000FDF7D6FC05E0FDF703FF42464B46FDF7BA
:10287000FFFE04460E460022284BFDF781FF03D8D9
:102880004FF0FF30014607E00022254B204631463D
:10289000FDF747FEFDF75BFF102409E0002C0ADB83
:1028A0000A220023FDF778FD039B30321A55641E7F
:1028B00050EA0102F2D1641C039AC4F111031444DA
:1028C000119A012A03D0012208430DD10AE00843DE
:1028D00004D000204FF0110B119072E7A3EB0B0511
:1028E0006D1E0DE05B4504DD4FF0000205F10105B2
:1028F00004E003DA4FF00002A5F10105002AECD054
:1029000002981199C0E90231C0E9004579E7000059
:10291000000014400000F03F300000000000F043D1
:102920000000E03F2DE9FF4F95B09B4689460646E3
:1029300000250FE2252877D100242746F84A0121F7
:10294000059400E0044316F8013F203B01FA03F030
:102950001042F7D130782A2811D06FF02F03307849
:10296000A0F13002092A16D8059A44F0020402EBBD
:10297000820203EB42021044761C0590EFE759F8FF
:10298000042B0592002A03DA504244F400540590C7
:1029900044F00204761C30782E2816D116F8010F68
:1029A00044F004042A280DD06FF02F023078A0F1F3
:1029B0003003092B09D807EB870302EB4303C71841
:1029C000761CF3E759F8047B761C30786C280FD01E
:1029D00006DC4C2817D068280DD06A2814D104E0F2
:1029E000742810D07A280FD10DE044F400140AE0C6
:1029F00044F4801401E044F440147278824202D11D
:102A000004F58014761C761C307866280BD013DC15
:102A1000582877D009DC002875D04528F6D04628FC
:102A2000F4D047281AD19DE118E0632835D06428F6
:102A300079D0652812D195E1702873D008DC672819
:102A4000F1D069286FD06E280DD06F2806D1B5E07F
:102A500073282CD0752875D0782874D05A461799C9
:102A600090476D1C75E1C4F30250022809D0032879
:102A70000DD0D9F8001004280DD00D6009F104091B
:102A800067E1D9F80010EA17C1E90052F6E7D9F872
:102A900000100D80F2E70D70F0E719F8041B8DF8B7
:102AA000001000208DF80100EA46012003E059F8EB
:102AB00004AB4FF0FF3061074FF0000102D40DE08E
:102AC00008F101018846B9420FDA8045F8DB1AF8AF
:102AD00008100029F4D108E008F10101884681427C
:102AE000FADB1AF808100029F6D105985B46A0EB2E
:102AF000080721463846179A00F094FA284400EB5C
:102B0000080507E04DE029E10DE01AF8010B5A46EF
:102B100017999047B8F10108F7D25B46214638462D
:102B2000179A13E142E00A220092C4F302524FF0D6
:102B3000000A022A08D059F804CB032A4FEAEC71A4
:102B40000AD00DE029E02AE009F1070121F007028F
:102B5000F2E802C1914609E00FFA8CFC4FEAEC71F1
:102B6000042A03D14FFA8CFC4FEAEC71002907DAF2
:102B70000A460021DCF1000C61EB02012D2202E08B
:102B8000220504D52B228DF80420012203E0E20760
:102B900001D02022F7E7904659E00A2102E01022F6
:102BA0000DE010214FF0000A00910BE010224FF0D1
:102BB000000A44F004040827009203E008224FF0C2
:102BC000000A0092C4F30252022A05D059F804CB3D
:102BD0000021032A08D009E009F1070121F00702CA
:102BE000F2E802C1914605E01FFA8CFC042A01D1EB
:102BF0000CF0FF0C4FF00008220728D5702806D0F3
:102C0000009B83F0100353EA0A0305D00EE0402234
:102C10008DF80420012208E05CEA010206D030228F
:102C20008DF804208DF8050002229046009B83F069
:102C3000080353EA0A030AD15CEA010201D16207E0
:102C400005D530228DF804204FF001087F1E58284A
:102C500004D034A003900EA802900DE036A0F9E74E
:102C600053466046009AFDF797FB84460398825CC2
:102C70000298401E029002705CEA0100F0D10298B6
:102C800006A9081A00F1200A600702D524F480344E
:102C900000E00127574502DDA7EB0A0000E0002015
:102CA00000EB0A01009005984144401A0590E003AA
:102CB00006D45B462146179A059800F0B3F90544FF
:102CC000002706E001A85A46C05D179990476D1C81
:102CD0007F1C4745F6DBE0030CD55B462146179A7F
:102CE000059800F09FF9054404E030205A461799F2
:102CF00090476D1C0099481E00900029F5DC08E003
:102D0000029802995A460078491C029117999047F7
:102D10006D1CBAF10001AAF1010AF1DC65E10000C5
:102D200009280100303132333435363738396162A1
:102D30006364656600000000303132333435363765
:102D400038394142434445460000000000F058F93C
:102D50000544761C307800287FF4ECAD19B0284685
:102D6000BDE8F08F620700D4062709F1070222F0C0
:102D7000070CFCE80223E14603F000485FEA080C78
:102D800002D00FF2702C0DE05FEA045C02D50FF266
:102D9000682C07E05FEAC47C02D00FF2602C01E0EF
:102DA000AFF2700C4FF0FF3823F00043CDF850C065
:102DB00065280CD006DC452809D046281DD04728B8
:102DC0003DD13DE0662818D067287ED138E000214B
:102DD000112F01DB112000E0781CCDE9000106A9CC
:102DE0000EA8FFF7DDFCDDE90F010E9A039100212B
:102DF000009207F1010A04914DE04FF00040009766
:102E0000CDE9011006A90EA8FFF7CAFCDDE90F0203
:102E100003920E9B11990022DDF80CA000930492FE
:102E200011B9791C00EB010AB7EB0A0004D4C0F118
:102E3000FF3007F1010A0490AAEB0700019044E07B
:102E4000012F00DA01270021112F01DD112000E000
:102E50003846CDE9000106A90EA8FFF7A1FCDDE97F
:102E60000F010E9A0391002104910092BA462107A6
:102E70000CD40399514500DA8A46BAF1010F05DDF9
:102E8000009AAAF10101515C302908D0B84202DA57
:102E900010F1040F06DA0121CDE9011015E0AAF1C5
:102EA0000101E9E7002805DC049901440491AAEB3B
:102EB000000102E0411C514500DD8A460499401A98
:102EC000401C01904FF000400290200704D401986C
:102ED000504501DBCDF8048000208DF84F000298AA
:102EE0000DF14F07B0F1004F25D02B200E90029826
:102EF0004FF0020800280CDA404202902D200E907C
:102F000007E00A210298FDF731FA3031029007F804
:102F1000011DB8F10001A8F10108F2DC02980028B7
:102F2000EFD1791E0E980870307800F0200040F044
:102F3000450007F8020D12A8C01B00F107081498FD
:102F4000007800B1012000EB0A01019801EBE0716B
:102F500005984144401A401E0590E00306D45B46A4
:102F60002146179A059800F05DF8054414980078FA
:102F700018B15A46179990476D1CE00324D55B465B
:102F80002146179A059800F04DF805441CE0049876
:102F9000002807DBDDE90301884203DD0098405C7F
:102FA000179901E0179930205A469047049805F187
:102FB0000105401C04900198401E019004D12E2070
:102FC0005A46179990476D1CBAF10001AAF1010AFF
:102FD000DDDC05E017F8010B5A46179990476D1C88
:102FE000B8F10001A8F10108F4DC5B462146179A0C
:102FF0000598ABE62D0000002B000000200000002B
:103000002DE9F041044600251E461746880404D4E5
:1030100005E039462020B0476D1C641EF9D52846CE
:10302000BDE8F0812DE9F041044600251E4690469A
:10303000C80301D5302700E02027880404D505E027
:1030400041463846B0476D1C641EF9D52846BDE898
:10305000F081000070B50446082802D94FF0FF3017
:1030600070BD4FF4847000EB441005461021FFF74B
:10307000FFFA2846FFF796FA0028FAD14FF40270BB
:1030800000EB44101F21FFF7F3FA0D490120A04087
:103090004A8882434A808A8882438A80094900207C
:1030A00021F814000649891D08554FF4427000EBC1
:1030B00044142046FFF776FA0028FAD1012070BDAB
:1030C000180000209009002010B50C4606281ED2DA
:1030D000DFE800F003070B101418204601F024F974
:1030E00013E0204601F092F80FE02078BDE8104090
:1030F00001F046B901F0B6F8207006E0204601F074
:1031000051F902E0204601F0B0F8002010BD4FF068
:10311000FF3010BD2DE9F0410C46002102464F1E44
:1031200008464FF498554FF4A056102A61D2DFE8B4
:1031300002F0080B17131A1E222C3643464A574E2C
:10314000535A01F048F94BE014B1204604F108014C
:10315000BDE8F04101F09DB8208801F026F83FE07D
:1031600001F036F805E0208801F0D0F838E001F0F1
:103170003EF8208034E02088010A2846FFF778FADC
:1031800021783046FFF774FA2AE03046FFF70AFA52
:1031900006462846FFF706FA06EB0020E9E7164840
:1031A00082782270C27862700279A2704279E270ED
:1031B00080792071617113E001F086F910E02046FA
:1031C00001F097F90CE0204601F03FF908E0207883
:1031D000BDE8F04101F0B2B901F069F905E02070F5
:1031E0000020BDE8F08101F057F9C0B241B2491C9E
:1031F000F5D13846F5E700003000002070B50446F0
:10320000082802D94FF0FF3070BD60010125083059
:10321000FFF7C8F900F00F00012801D0A81F70BD0A
:103220004FF4847000EB441006460821FFF720FAA3
:103230003046FFF7B7F90028FAD11248A540818837
:10324000A9438180408805420CD0002070BD3046E3
:10325000FFF7A8F900070DD52046FFF7FBFE6FF03A
:103260000C0070BD4FF4027000EB44164FF4427036
:1032700000EB44152846FFF795F90028E7D1012017
:1032800070BD00001800002038B504468DF800001D
:103290000223012269460248FEF7C0FE204638BDDF
:1032A000500900202DE9F04142F2086101EB401580
:1032B00042F20871002601EB40142846FFF772F92C
:1032C00007462046FFF76EF900EB072007043F0C86
:1032D00009D02846FFF766F906462046FFF762F94F
:1032E00000EB062086B2BE42E7D13046BDE8F08151
:1032F0002DE9F04142F2080101EB401542F20811BC
:10330000002601EB40142846FFF74CF907462046FB
:10331000FFF748F900EB072007043F0C09D02846C7
:10332000FFF740F906462046FFF73CF900EB062080
:1033300086B2BE42E7D13046BDE8F08170B50446A2
:10334000082802D94FF0FF3070BD60010830FFF748
:1033500029F900F00F00012802D06FF0040070BDC1
:103360004FF4427000EB44100546FFF71BF9132899
:1033700002D06FF0020070BD4FF4847000EB441077
:1033800006460221FFF774F93046FFF70BF90028D3
:10339000FAD12846FFF706F9142805D02046FFF792
:1033A00059FE6FF0030070BD012070BD2DE9FF4193
:1033B00004464FF4427016468846002500EB441040
:1033C000FFF7F0F8002877D0132869D0172802D02B
:1033D0001C2879D15AE04FF4027000EB44100646E5
:1033E000FFF7E0F8C0072AD040F6084000EB441091
:1033F000042203A9FFF702F941F2081000EB441080
:10340000FFF7D0F8074641F2080000EB4410FFF741
:10341000C9F807EB00209DF80E2080B29DF80F1030
:103420000092CDE901109DF80D309DF80C20214649
:1034300026A0FFF785F930460121FFF719F920464C
:10344000FFF730FF02003FD04FF40060824200D906
:1034500002464146204600F08DFA00280EDD87B274
:1034600011E0781B82B208EB0501204600F03CFC1D
:10347000060006D52046FFF7EDFD304604B0BDE856
:10348000F081284485B2AF42EBD11DE02046FFF722
:10349000B5FE0128F2D1214615A0FFF751F913E03E
:1034A0003246214617A0FFF74BF92046FFF746FFAB
:1034B0000128E3D108E0FFE700233246012120463E
:1034C00000F060FDA042D9D10120D7E725643A433E
:1034D0006F6E6E6563746564202D2025642E2564EF
:1034E0002E25642E2564203A2025640D0A00000054
:1034F00025643A536F636B657420436C6F73656426
:103500000D0A000025643A4C697374656E2C2054D2
:10351000435020736572766572206C6F6F706261C4
:10352000636B2C20706F7274205B25645D0D0A0044
:103530002DE9FE4306464FF442701446884600EBE0
:103540004610FFF72FF8002839D0222844D1304602
:10355000FFF7A8FE02003FD04FF40060824200D97E
:10356000024602A8009001AB4146304600F074FAD2
:10357000041E07DC0246314618A0FFF7E1F820469A
:10358000BDE8FE8387B2002416E000BFBDF8080046
:103590000090381B82B208EB040101AB304600F00A
:1035A00031FC050006D50246314613A0FFF7C8F8E6
:1035B0002846E5E7204484B2BC42E7D10CE0002372
:1035C00022460221304600F0DDFCB042D8D122462E
:1035D00031460FA0FFF7B4F80120D1E725643A2067
:1035E0007265637666726F6D206572726F722E20DF
:1035F000256C640D0A00000025643A2073656E6432
:10360000746F206572726F722E20256C640D0A0033
:1036100025643A4F70656E65642C20554450206CCB
:103620006F6F706261636B2C20706F7274205B250A
:10363000645D0D0A0000000088B0514B0DF1080CCC
:103640000FCB8CE80F00FDF785FDFEF7B6FEFEF709
:1036500065FDFEF73DFDFEF7AFFDFEF7F1FDFEF760
:10366000CDFD4849484800F001FB4849484800F072
:103670000FFB4849484800F021FB02A90120FFF751
:1036800049FD401C03D145A0FFF75AF8FEE701A908
:103690000F20FFF73FFD401C02D147A0FFF750F875
:1036A0009DF804000028F2D000F0C8F84FF4FA7832
:1036B00041F2883940F6B83A4046FDF725FC012131
:1036C00006A8FDF709F90798FCF73DFE02460B46F0
:1036D00040A0FFF735F84A4642490020FFF766FE52
:1036E000010002D540A0FFF72BF852463D490120CA
:1036F000FFF71EFF010002D53BA0FFF721F840486D
:10370000FDF7A2FB32213E48FDF706FB3C48FDF7E2
:1037100041FA8005D0D53A48FDF73EFA84B202233B
:10372000012269463748FEF7ABF99DF800009DF885
:10373000011000EB012080B2FCF7F8FD324E4FF093
:1037400066352A463346FCF763FD6FF00B073A46B1
:10375000FCF7D0FD02460B462CA0FEF7F1FF2046F9
:10376000FCF7E4FD2A463346FCF752FD3A46FCF7E7
:10377000C1FD02460B462BA0FEF7E2FF9CE70000CE
:103780008C45000875250008652500089925000866
:1037900055250008852500084125000857495A434A
:1037A00048495020496E697469616C697A65642082
:1037B0006661696C2E0D0A00556E6B6E6F776E2018
:1037C000504859204C696E6B207374617574732E68
:1037D0000D0A000054656D703A2025322E316620A6
:1037E0000D0A000070000020534F434B4554204504
:1037F00052524F52203A20256C640D0A00000000FE
:1038000070080020A008002066660A405B096D6110
:10381000696E5D536C617665323A763D252E33666E
:103820000D0A00005B096D61696E5D4D6173746521
:10383000723A763D252E33660D0A000010B586B02B
:1038400020490020FFF740FC1E490120FFF73CFC07
:1038500003A90820FFF75EFC03A91BA0FEF770FF79
:10386000184CE078627921798DE80700A3786278B6
:1038700021781BA0FEF764FF607A0090237AE2793A
:10388000A17921A0FEF75CFF607C0090237CE27BA5
:10389000A17B22A0FEF754FF607B0090237BE27A9D
:1038A000A17A23A0FEF74CFF607D0090237DE27C8F
:1038B000A17C24A0FEF744FF27A0FEF741FF06B03D
:1038C00010BD0000000000200D0A3D3D3D20257385
:1038D000204E455420434F4E46203D3D3D0D0A00AD
:1038E0004D41433A20253032583A253032583A2556
:1038F0003032583A253032583A253032583A25304D
:1039000032580D0A000000005349503A2025642E19
:1039100025642E25642E25640D0A00004741523A85
:103920002025642E25642E25642E25640D0A0000B2
:103930005355423A2025642E25642E25642E256495
:103940000D0A0000444E533A2025642E25642E258E
:10395000642E25640D0A00003D3D3D3D3D3D3D3D4D
:103960003D3D3D3D3D3D3D3D3D3D3D3D3D3D0D0AEA
:10397000000000002DE9F74F14460546082803D93A
:103980004FF0FF30BDE8FE8F680101260830FEF7DA
:1039900009FE00F00F00012801D0B01FF2E724B3A8
:1039A00041F6086000EB4510FEF7FCFD4FF6FF7195
:1039B00001EA8020A04200D204464FF4427000EB9E
:1039C000451841F60870DFF88CA000EB451B06FA9D
:1039D00005F92846FFF766FC06464046FEF7E2FD7D
:1039E000172816D01C2803D00DE06FF00D00C9E792
:1039F000CEB92846FFF77CFC07465846FEF7D2FDB5
:103A0000B7EB802F05D12846FFF724FB6FF00600A7
:103A1000B8E7BAF8021019EA010F02D01EB9002067
:103A2000B0E7002ED5D0A64200D234462246284622
:103A3000019900F035FB4FF4847000EB451005460A
:103A40004021FEF715FE2846FEF7ACFD0028FAD10E
:103A5000204697E7180000202DE9FF4F002583B08E
:103A60001F4690460446082803D9681E07B0BDE8E3
:103A7000F08F60014FF0010A0830FEF793FD834696
:103A800000F00F00022806D0032804D0042802D03A
:103A90006FF00400EAE7B8F1000F05D0DFF8C49139
:103AA00039F8140018B11EE06FF00D00DEE74FF496
:103AB000427000EB44160AFA04FA2046FFF7F2FBC4
:103AC00005463046FEF76EFD30B1674949881AEA6F
:103AD000010F06D01DB106E06FF00300C6E700201D
:103AE000C4E7002DE9D00BF00701DFF87CA14FF40B
:103AF00084704FF0800B0AF1060A00EB441602298D
:103B000022D003297CD0042952D02946204600F037
:103B1000F7FA29F8145030464021FEF7A9FD304647
:103B2000FEF740FD0028FAD139F81410491B0904AA
:103B3000090C29F8141003D01AF8041041F00101FF
:103B40000AF80410284691E739F814004D4670BB76
:103B500008226946204600F0A3FA30464021FEF7CD
:103B600087FD3046FEF71EFD0028FAD19DF80000C3
:103B700038709DF8010078709DF80200B8709DF8CB
:103B80000300F87010999DF8040008809DF8051056
:103B900001EB0020109908809DF806009DF80710A1
:103BA0005BE02A462046049900F07AFAB3E72AE05F
:103BB00039F814004D4630BB02226946204600F019
:103BC0006FFA30464021FEF753FD3046FEF7EAFC1F
:103BD0000028FAD19DF800009DF801106FF0010255
:103BE00002EB0020084480B240F2EA5125F81400AC
:103BF000884206D92046FFF72DFA6FF47A7035E730
:103C000002E00AF804B003E039F814004D4630B180
:103C100035F8145040464545C3D90546C1E706224C
:103C20006946204600F03CFA30464021FEF720FD70
:103C30003046FEF7B7FC0028FAD19DF80000387036
:103C40009DF8010078709DF80200B8709DF803009F
:103C5000F8709DF804009DF8051001EB002025F890
:103C60001400CEE79009002018000020054A18B182
:103C700011B1C2E9050170470348506103489061E2
:103C80007047000030000020CF410008CD410008FF
:103C9000074A10B513889C05FDD518B111B1C2E9CA
:103CA000070110BD0348D0610348106210BD000039
:103CB00030000020CF430008D5430008074A10B564
:103CC00013889C05FDD518B111B1C2E9090110BDD9
:103CD000034850620348906210BD0000300000208D
:103CE000CD430008D34300082DE9F05F15468B460D
:103CF0000646082803D94FF0FF30BDE8F09F700159
:103D000001240830FEF74EFC00F00F00012801D01E
:103D1000A01FF2E775B14FF4427000EB4610074662
:103D2000FEF740FC6FF0060A172806D01C2804D0C6
:103D30005046E2E76FF00D00DFE7DFF8C480B440E3
:103D4000B8F80400044213D04FF4027000EB4610A0
:103D50008146FEF727FC00F01F00C10624D5484627
:103D60001021FEF785FCB8F80410A143A8F8041050
:103D700041F6087000EB4610FEF714FC4FF6FF7199
:103D800001EA8020854200D905463046FFF7B0FAA7
:103D900081463846FEF706FC17280DD01C280BD0AC
:103DA0003046FFF757F9C3E700070BD53046FFF75A
:103DB00051F96FF00C00A0E7B8F80200044203D0FC
:103DC0004D4501D9002098E74D45DED82A46594691
:103DD000304600F0B6F94FF4847000EB461006460A
:103DE0002021FEF745FC3046FEF7DCFB0028FAD127
:103DF000B8F8041028460C43A8F804407DE70000FA
:103E0000180000202DE9F0471E46DDF820801546F9
:103E10008A460446082803D94FF0FF30BDE8F087F2
:103E2000670108374FF001093846FEF7BBFB00F089
:103E30000F00022806D0032804D0042802D06FF017
:103E40000400EBE75DB13078717801EB0020B178C8
:103E500001EB0020F17811EB002003D00AE06FF0B5
:103E60000D00DBE73846FEF79DFB400702D46FF0FC
:103E70000B00D3E7B8F1000F07D13846FEF792FBED
:103E8000400702D46FF00A00C8E74FF4427000EB1D
:103E900044100746FEF786FB422806D0222804D0AD
:103EA000322802D06FF00600B8E740F6084000EB79
:103EB000441004223146FEF70BFC41F208004FEAA1
:103EC000182100EB4410FEF7D3FB41F2081008F074
:103ED000FF0100EB4410FEF7CBFB41F6087000EB4E
:103EE0004410FEF75FFB4FF6FF7101EA8020854228
:103EF00000D90546DFF8888009FA04F62046FFF766
:103F0000F7F981463846FEF74DFB38B1B8F80200A4
:103F1000064206D04D4504D900207FE76FF003002C
:103F20007CE74D45EAD82A465146204600F009F97B
:103F30004FF4847000EB441006462021FEF798FBF6
:103F40004FF4027000EB44143046FEF72BFB0028C0
:103F5000FAD12046FEF726FB00F01F00C10605D56A
:103F600020461021FEF784FB284657E70007F0D5CE
:103F700020460821FEF77CFB6FF00C004EE70000A6
:103F8000180000202DE9F8431D4617460E4604464A
:103F9000082803D94FF0FF30BDE8F883012E08D080
:103FA000022E0ED0032E0CD0042E0AD06FF0040087
:103FB000F2E7042269464FF47060FEF71FFB009899
:103FC00048B169076FF00500E6D49DB1012E05D018
:103FD000022E0FD106E06FF00200DDE715F0210F91
:103FE000DAD007E0A90601D52906D5D5E90601D51D
:103FF0002906D1D52046FFF72DF8600105F0F00124
:104000004FF0010831430830FEF732FB224E57B91A
:104010003788781C80B2A0F57F413080F03902D11A
:104020004FF4404030804FF48160390A00EB441077
:10403000FEF71EFB4FF4A160F9B200EB4410FEF74F
:1040400017FB4FF4847000EB441007460121FEF784
:104050000FFB3846FEF7A6FA0028FAD108FA04F05A
:10406000718805F001028143A2400A437280B18841
:104070008143B1800949002021F814000649891DB7
:1040800008554FF4427000EB44152846FEF78AFAB3
:104090000028FAD060B27FE71800002090090020C5
:1040A0002DE9F0475FEA02088946064626D042F627
:1040B000081000EB46152846FEF774FA074642F64C
:1040C000080000EB46142046FEF76CFA07EB0020D0
:1040D00087B2380200EB4610424649461830FEF7D8
:1040E0008DFA07EB080086B2310A2046FEF7C0FAC7
:1040F000F1B22846BDE8F047FEF7BABABDE8F0874E
:104100002DE9F041044642F6081000EB44150E4636
:104110002846FEF747FA074642F6080000EB44142B
:104120002046FEF73FFA07EB0020304486B2310A02
:104130002046FEF79DFAF1B22846BDE8F041FEF7B1
:1041400097BA2DE9F0475FEA02088946064626D06D
:1041500042F2085000EB46152846FEF723FA0746C0
:1041600042F2084000EB46142046FEF71BFA07EB2C
:10417000002087B2380200EB461042464946103014
:10418000FEF7A6FA07EB080086B2310A2046FEF7D2
:104190006FFAF1B22846BDE8F047FEF769BABDE80C
:1041A000F087007870470170704710B5040A00F07E
:1041B000F0014FF4A850FEF75BFA2146BDE810402D
:1041C0004FF4B850FEF754BA7047704770477047C5
:1041D00010B54FF4A850FEF7E5F900F0F0044FF4E5
:1041E000B850FEF7DFF904EB002080B210BD10B527
:1041F0004FF4B050FEF7D6F904464FF4C050FEF726
:10420000D1F904EB002080B210BD000010B50446C7
:10421000014606224FF41060FEF7F0F9042204F183
:104220000E019001FEF7EAF9042204F10A014FF4AD
:10423000A060FEF7E3F90422A11D4FF47060FEF7C1
:10424000DDF907480178A1744178E174817821751E
:10425000C07860750248401E0078A07510BD00004F
:10426000290000200020FEF79DB970B504464FF4E8
:10427000D850FEF797F920704FF4D050FEF792F91E
:1042800005464FF4C850FEF78DF905EB002060801D
:1042900070BD2DE9F0410D460646002400F09BF864
:1042A0004FF0FF38AEB10022B05C204444B2102C75
:1042B00017DC521C52B2082AF6DB002441F60877BC
:1042C000315D07EB4410FEF7D3F9641C64B2082C8F
:1042D000F6DBCDB1002108462A5C114449B2102911
:1042E00002DD4046BDE8F081401C40B20828F3DB07
:1042F000002441F60866295D06EB4410FEF7B8F984
:10430000641C64B2082CF6DB0020EBE710B5C1B2E8
:10431000040A4FF4B050FEF7ABF92146BDE8104057
:104320004FF4C050FEF7A4B910B50446014606226A
:104330004FF41060FEF7CCF9042204F10E01900155
:10434000FEF7C6F9042204F10A014FF4A060FEF75B
:10435000BFF90422A11D4FF47060FEF7B9F90748B8
:10436000A17C0170E17C4170217D8170617DC17013
:104370000249A07D491E087010BD000029000020E0
:1043800010B5044630F03A0002D04FF0FF3010BDB7
:104390000020FEF707F940EA04010020FEF768F963
:1043A000002010BD10B5044601784FF4D850FEF738
:1043B0005FF96088010A4FF4C850FEF759F9A178F7
:1043C000BDE810404FF4D050FEF752B970470020BE
:1043D000704770477047F0B585B04FF410640622FF
:1043E00069462046FEF70AF90422950102A92846EB
:1043F000FEF704F94FF4A066042203A93046FEF745
:10440000FDF84FF47067042204A93846FEF7F6F869
:1044100080210020FEF72CF90020FEF7C3F80622C9
:1044200069462046FEF754F9042202A92846FEF701
:104430004FF9042203A93046FEF74AF9042204A9E1
:104440003846FEF745F905B0F0BD10B504464FF407
:104450003850FEF7A7F8C0F38011217000F0380043
:1044600001220021202811D038280FD06170102897
:104470000ED018280CD020280AD0A170082809D006
:10448000182807D0202805D0E17010BD6270EEE733
:10449000A270F3E7E27010BD10B500244FF438505D
:1044A000FEF780F8C00700D00124204610BD10B5EB
:1044B00000244FF43850FEF775F8C0F3C200062808
:1044C00000D10124204610BD10B54FF438542046C9
:1044D000FEF768F820F080012046FEF7C9F8204674
:1044E000FEF760F840F080012046BDE81040FEF77E
:1044F000BFB810B502780021012A00D140214278CE
:10450000012A06D0C2788078012A05D001280BD074
:104510000CE041F0380109E0012802D041F0080127
:1045200004E041F0180101E041F010014FF438506F
:10453000FEF79EF8BDE81040FFF7C6BF70B5044611
:104540004FF438563046FEF72DF841064FF0FF3550
:104550001AD520F03800012C10D040F03801304638
:10456000FEF786F8FFF7B0FF3046FEF71BF8012C88
:1045700007D000F0380038B1002070BD40F03001A5
:10458000EDE700F03000F6E7284670BD02020202B7
:104590000202020202020202020202020000000003
:1045A00000000000010203040607080900000000E3
:1045B00001020304D4450008000000207000000040
:1045C000802700084446000870000020300D0000DD
:1045D00090270008000102030405C0A80158FFFF4E
:1045E000FF00C0A8010108080808010000C0000081
:1045F00000000000000000000000000000000000BB
:104600000000000001025735353030000000000086
:10461000C9410008CB410008CF410008CD41000846
:10462000A3410008A74100080000000000000000AE
:104630000100000010000000000000000024F40051
:044640000000000076
:0400000508000131BD
:00000001FF
