:020000040800F2
:1000000000000120553300085D0D00085F0D000859
:10001000610D0008630D0008650D00080000000078
:10002000000000000000000000000000670D000854
:10003000690D0008000000006B0D00086D0D000840
:100040009D3300089D3300089D3300089D33000850
:100050009D3300089D3300089D3300089D33000840
:100060009D3300089D3300089D3300089D33000830
:100070009D330008750D00089D3300089D3300086E
:100080009D3300089D3300089D3300089D33000810
:100090009D3300089D3300089D3300089D33000800
:1000A0009D3300089D3300089D3300089D330008F0
:1000B0009D3300089D3300089D3300089D330008E0
:1000C0009D3300089D3300089D3300089D330008D0
:1000D0009D3300089D3300089D3300089D330008C0
:1000E0009D3300089D3300089D3300089D330008B0
:1000F0009D3300089D3300089D3300089D330008A0
:100100009D3300089D3300089D3300089D3300088F
:100110009D3300089D3300089D3300089D3300087F
:100120009D3300089D3300089D3300089D3300086F
:1001300000000000000000000000000000000000BF
:1001400000000000000000000000000000000000AF
:10015000000000000000000000000000000000009F
:10016000000000000000000000000000000000008F
:10017000000000000000000000000000000000007F
:10018000000000000000000000000000000000006F
:10019000000000000000000000000000000000005F
:1001A000000000000000000000000000000000004F
:1001B000000000000000000000000000000000003F
:1001C000000000000000000000000000000000002F
:1001D000000000000000000000000000000000001F
:0401E0005FF8E0F1F3
:1001E80070B54FF0FF0C4CF4E06C1CEA11541DBFC5
:1001F8001CEA135594EA0C0F95EA0C0F00F0DEF890
:100208002C4481EA030621EA4C5123EA4C5350EA74
:10021800013518BF52EA033541F4801143F48013C5
:1002280038D0A0FB02CE4FF00005E1FB02E506F056
:100238000042E0FB03E54FF00006E1FB03569CF0AB
:10024800000F18BF4EF0010EA4F1FF04B6F5007FB1
:1002580064F5407404D25FEA4E0E6D4146EB060623
:1002680042EAC62141EA55514FEAC52040EA5E50AC
:100278004FEACE2EB4F1FD0C88BFBCF5E06F1ED856
:10028800BEF1004F08BF5FEA500E50F1000041EB8D
:10029800045170BD06F0004646EA010140EA02003A
:1002A80081EA0301B4EB5C04C2BFD4EB0C0541EA5C
:1002B800045170BD41F480114FF0000E013C00F371
:1002C800AB8014F1360FDEBF002001F0004170BD95
:1002D800C4F10004203C35DA0C341BDC04F11404AE
:1002E800C4F1200500FA05F320FA04F001FA05F23A
:1002F80040EA020001F0004221F0004110EBD37007
:1003080021FA04F642EB06015EEA430E08BF20EA32
:10031800D37070BDC4F10C04C4F1200500FA04F3D5
:1003280020FA05F001FA04F240EA020001F0004167
:1003380010EBD37041F100015EEA430E08BF20EADA
:10034800D37070BDC4F1200500FA05F24EEA020E22
:1003580020FA04F301FA05F243EA020321FA04F051
:1003680001F0004121FA04F220EA020000EBD37008
:100378005EEA430E08BF20EAD37070BD94F0000F08
:100388000FD101F00046400041EB010111F4801F3C
:1003980008BF013CF7D041EA060195F0000F18BFED
:1003A800704703F00046520043EB030313F4801F29
:1003B80008BF013DF7D043EA0603704794EA0C0FE3
:1003C8000CEA135518BF95EA0C0F0CD050EA4106F9
:1003D80018BF52EA4306D1D181EA030101F0004176
:1003E8004FF0000070BD50EA410606BF104619469E
:1003F80052EA430619D094EA0C0F02D150EA0136AA
:1004080013D195EA0C0F05D152EA03361CBF1046EA
:1004180019460AD181EA030101F0004141F0FE4189
:1004280041F470014FF0000070BD41F0FE4141F40D
:10043800780170BD4FF0FF0C1CEAD0521EBF1CEAB9
:10044800D15392EA0C0F93EA0C0F6FD01A4480EA4A
:10045800010C400218BF5FEA41211ED04FF0006333
:1004680043EA501043EA5111A0FB01310CF000405F
:10047800B1F5000F3EBF490041EAD3715B0040EA85
:10048800010062F17F02FD2A1DD8B3F1004F40EB55
:10049800C25008BF20F00100704790F0000F0CF028
:1004A800004C08BF49024CEA502040EA51207F3AEC
:1004B800C2BFD2F1FF0340EAC250704740F40000C7
:1004C8004FF00003013A5DDC12F1190FDCBF00F0B8
:1004D80000407047C2F10002410021FA02F1C2F166
:1004E800200200FA02FC5FEA310040F1000053EA02
:1004F8004C0308BF20EADC70704792F0000F00F050
:10050800004C02BF400010F4000F013AF9D040EA55
:100518000C0093F0000F01F0004C02BF490011F4E9
:10052800000F013BF9D041EA0C018FE70CEAD153E7
:1005380092EA0C0F18BF93EA0C0F0AD030F0004C67
:1005480018BF31F0004CD8D180EA010000F000401B
:10055800704790F0000F17BF90F0004F084691F0D9
:10056800000F91F0004F14D092EA0C0F01D1420213
:100578000FD193EA0C0F03D14B0218BF084608D1DC
:1005880080EA010000F0004040F0FE4040F4000026
:10059800704740F0FE4040F44000704781F0004151
:1005A80002E000BF83F0004330B54FEA41044FEA50
:1005B800430594EA050F08BF90EA020F1FBF54EAEB
:1005C800000C55EA020C7FEA645C7FEA655C00F087
:1005D800E2804FEA5454D4EB5555B8BF6D420CDD58
:1005E8002C4480EA020281EA030382EA000083EADB
:1005F800010180EA020281EA0303362D88BF30BD7B
:1006080011F0004F4FEA01314FF4801C4CEA1131D0
:1006180002D0404261EB410113F0004F4FEA03332F
:100628004CEA133302D0524263EB430394EA050FBA
:1006380000F0A780A4F10104D5F1200E0DDB02FA29
:100648000EFC22FA05F2801841F1000103FA0EF2BD
:10065800801843FA05F359410EE0A5F120050EF183
:10066800200E012A03FA0EFC28BF4CF0020C43FAB4
:1006780005F3C01851EBE37101F0004507D54FF0C1
:10068800000EDCF1000C7EEB00006EEB0101B1F511
:10069800801F1BD3B1F5001F0CD349085FEA300057
:1006A8004FEA3C0C04F101044FEA445212F5800F62
:1006B80080F09A80BCF1004F08BF5FEA500C50F1FF
:1006C800000041EB045141EA050130BD5FEA4C0CE2
:1006D800404141EB0101013C28BFB1F5801FE9D23F
:1006E80091F0000F04BF01460020B1FA81F308BF62
:1006F8002033A3F10B03B3F120020CDA0C3208DD2E
:1007080002F1140CC2F10C0201FA0CF021FA02F108
:100718000CE002F11402D8BFC2F1200C01FA02F178
:1007280020FA0CFCDCBF41EA0C019040E41AA2BF9D
:1007380001EB0451294330BD6FEA04041F3C1CDA65
:100748000C340EDC04F11404C4F1200220FA04F085
:1007580001FA02F340EA030021FA04F345EA03012F
:1007680030BDC4F10C04C4F1200220FA02F001FAF1
:1007780004F340EA0300294630BD21FA04F0294673
:1007880030BD94F0000F83F4801306BF81F480110C
:100798000134013D4EE77FEA645C18BF7FEA655C7F
:1007A80029D094EA050F08BF90EA020F05D054EA51
:1007B800000C04BF1946104630BD91EA030F1EBF56
:1007C8000021002030BD5FEA545C05D1400049415A
:1007D80028BF41F0004130BD14F580043CBF01F54D
:1007E800801130BD01F0004545F0FE4141F4700133
:1007F8004FF0000030BD7FEA645C1ABF194610460E
:100808007FEA655C1CBF0B46024650EA013406BF0E
:1008180052EA033591EA030F41F4002130BD00BFCD
:1008280090F0000F04BF0021704730B54FF480648A
:1008380004F132044FF000054FF0000150E700BF0B
:1008480090F0000F04BF0021704730B54FF480646A
:1008580004F1320410F0004548BF40424FF0000157
:100868003EE700BF42004FEAE2014FEA31014FEA9A
:1008780002701FBF12F07F4393F07F4F81F06051E9
:10088800704732F07F4208BF704793F07F4F04BF34
:1008980041F40021704730B54FF4607401F0004511
:1008A80021F000411CE700BF50EA010208BF704771
:1008B80030B54FF000050AE050EA010208BF704762
:1008C80030B511F0004502D5404261EB41014FF4CB
:1008D800806404F132045FEA915C3FF4D8AE4FF0D3
:1008E80003025FEADC0C18BF03325FEADC0C18BFB6
:1008F800033202EBDC02C2F1200300FA03FC20FA07
:1009080002F001FA03FE40EA0E0021FA02F1144453
:10091800BDE600BF80F0004002E000BF81F000416A
:1009280042001FBF5FEA410392EA030F7FEA226C8D
:100938007FEA236C6AD04FEA1262D2EB1363C1BF1D
:10094800D218414048404140B8BF5B42192B88BF8C
:10095800704710F0004F40F4000020F07F4018BFAF
:10096800404211F0004F41F4000121F07F4118BFCF
:10097800494292EA030F3FD0A2F1010241FA03FC77
:1009880010EB0C00C3F1200301FA03F100F000435F
:1009980002D5494260EB4000B0F5000F13D3B0F127
:1009A800807F06D340084FEA310102F10102FE2A96
:1009B80051D2B1F1004F40EBC25008BF20F0010006
:1009C80040EA03007047490040EB0000013A28BFA5
:1009D800B0F5000FEDD2B0FA80FCACF1080CB2EB28
:1009E8000C0200FA0CF0AABF00EBC25052421843A6
:1009F800BCBFD0401843704792F0000F81F400014B
:100A080006BF80F400000132013BB5E74FEA41031D
:100A18007FEA226C18BF7FEA236C21D092EA030F89
:100A280004D092F0000F08BF0846704790EA010F03
:100A38001CBF0020704712F07F4F04D1400028BF30
:100A480040F00040704712F100723CBF00F5000012
:100A5800704700F0004343F0FE4040F40000704748
:100A68007FEA226216BF08467FEA236301464202F4
:100A780006BF5FEA412390EA010F40F48000704707
:100A88004FF0000304E000BF10F0004348BF4042AD
:100A98005FEA000C08BF704743F0964301464FF0E9
:100AA80000001CE050EA010208BF70474FF0000345
:100AB8000AE000BF50EA010208BF704711F0004386
:100AC80002D5404261EB41015FEA010C02BF844656
:100AD8000146002043F0B64308BFA3F18053A3F5B5
:100AE8000003BCFA8CF2083AA3EBC25310DB01FAFC
:100AF80002FC634400FA02FCC2F12002BCF1004F80
:100B080020FA02F243EB020008BF20F00100704710
:100B180002F1200201FA02FCC2F1200250EA4C0064
:100B280021FA02F243EB020008BF20EADC707047AA
:100B380010B5054C237833B9044B13B10448AFF30F
:100B480000800123237010BD700000200000000009
:100B58003443000808B5034B1BB103490348AFF3FE
:100B6800008008BD00000000740000203443000825
:100B780030B597B000240F94119407940894099401
:100B88000A940B9401940294039404940594069493
:100B980009230C934FF480330D930E940122109285
:100BA80012920225139514934FF4E01315930CA891
:100BB80000F07AF90F230793089509944FF480639E
:100BC8000A930B94294607A800F0ACFB0323019372
:100BD8004FF4007302934FF40043039301A800F00D
:100BE8007DFC17B030BD000010B584B000F00EF9E0
:100BF800FFF7BEFF00F072F801F03CF901F0DEF8F3
:100C080001F0D8F901F0A2FA01F0F6F901F04CF977
:100C180001F09AF931E0204601F0A4FB04460223D2
:100C2800012203A9264802F05EF99DF80D309DF8CF
:100C38000C0000EB032080B2FFF702FE1EA3D3E9ED
:100C48000023FFF7CDFA00221E4BFFF7C9FA024630
:100C58000B461D4802F0CCFBA0B2FFF7F1FD16A32E
:100C6800D3E90023FFF7BCFA0022164BFFF7B8FAC6
:100C780002460B46154802F0BBFB4FF4FA7000F031
:100C8800E9F8012101A802F091FA0298FFF7EAFDBC
:100C980002460B460E4802F0ABFB0E4C204601F014
:100CA80041FC3221204601F0A7FA204601F0FAFB68
:100CB80010F4007FE1D0AEE76666666666660A40B5
:100CC8008C0100200000303F644300087C4300088A
:100CD800544300089C0000207047000030B589B0DC
:100CE80000240494059406940794184B9A6942F0DA
:100CF80004029A619A6902F004020192019A9A69BF
:100D080042F008029A619A6902F008020292029A75
:100D18009A6942F020029A619B6903F020030393C9
:100D2800039B0B4D22464FF40041284600F00BFE72
:100D38004FF4004304930123059306940223079379
:100D480004A9284600F0DCFC09B030BD00100240C0
:100D5800001401407047FEE7FEE7FEE7FEE7704734
:100D68007047704708B500F063F808BD08B5024839
:100D780000F03CFE08BD00BFE401002082B00E4B2D
:100D88009A6942F001029A619A6902F0010200929E
:100D9800009ADA6942F08052DA61DB6903F0805325
:100DA8000193019B054A536823F0E06343F0806395
:100DB800536002B0704700BF0010024000000140BD
:100DC80010B504460E4B18784FF47A73B3FBF0F362
:100DD8000C4A1068B0FBF3F000F0D2FF68B90F2C92
:100DE80001D901200AE0002221464FF0FF3000F02F
:100DF80085FF054B1C60002000E0012010BD00BFEE
:100E080000000020080000200400002008B5074A60
:100E1800136843F010031360032000F05DFF002007
:100E2800FFF7CEFFFFF7AAFF002008BD0020024011
:100E3800034A1168034B1B780B441360704700BFCB
:100E48009800002000000020014B1868704700BF80
:100E58009800002038B50446FFF7F6FF0546B4F1C0
:100E6800FF3F02D0044B1B781C44FFF7EDFF401BEB
:100E7800A042FAD338BD00BF0000002082B0084B62
:100E88001B68084AA2FB03235B0A00FB03F30193D8
:100E980000BF019B5A1E0192002BF9D102B0704786
:100EA80008000020D34D6210002800F0F18170B5D1
:100EB80082B00446036813F0010F2CD0AA4B5B687C
:100EC80003F00C03042B1DD0A74B5B6803F00C0345
:100ED800082B12D06368B3F5803F41D0002B55D161
:100EE80003F1804303F504331A6822F480321A6050
:100EF8001A6822F480221A6037E09B4B5B6813F46F
:100F0800803FE7D0984B1B6813F4003F03D0636819
:100F1800002B00F0BF81236813F0020F75D0924BAD
:100F28005B6813F00C0F5FD08F4B5B6803F00C030A
:100F3800082B54D02369002B00F089808B4B0122A9
:100F48001A60FFF781FF0546874B1B6813F0020FF5
:100F580074D1FFF779FF401B0228F5D903209EE1E1
:100F6800814A136843F480331360636843B3FFF71F
:100F78006BFF05467C4B1B6813F4003FCBD1FFF792
:100F880063FF401B6428F5D9032088E1B3F5A02F3F
:100F980009D0754B1A6822F480321A601A6822F454
:100FA80080221A60E1E703F18043A3F53C331A6815
:100FB80042F480221A601A6842F480321A60D4E738
:100FC800FFF742FF0546684B1B6813F4003FA2D0A9
:100FD800FFF73AFF401B6428F5D903205FE1624B15
:100FE8005B6813F4803FA5D15F4B1B6813F0020FB9
:100FF80003D02369012B40F04F815B4A136823F02B
:10100800F803616943EAC1031360236813F0080F0A
:1010180032D0A369002B45D0554B01221A60FFF747
:1010280013FF0546504B5B6A13F0020F21D1FFF7FF
:101038000BFF401B0228F5D9032030E14A4A136808
:1010480023F0F803616943EAC1031360DDE7474B06
:1010580000221A60FFF7F8FE0546434B1B6813F0A1
:10106800020FD2D0FFF7F0FE401B0228F5D903206B
:1010780015E10120FFF702FF236813F0040F00F0C9
:101088009780394BDB6913F0805F1DD1364BDA69E5
:1010980042F08052DA61DB6903F080530193019BCF
:1010A800012512E0324B00221A60FFF7CDFE0546FB
:1010B8002D4B5B6A13F0020FDED0FFF7C5FE401B15
:1010C8000228F5D90320EAE000252A4B1B6813F40F
:1010D800807F11D0E368012B22D0002B38D103F197
:1010E800804303F504331A6A22F001021A621A6A6D
:1010F80022F004021A6218E01E4A136843F480734F
:101108001360FFF7A1FE06461A4B1B6813F4807F95
:10111800E0D1FFF799FE801B6428F5D90320BEE0D3
:10112800114A136A43F001031362E36873B3FFF7CC
:101138008BFE06460C4B1B6A13F0020F37D1FFF7E4
:1011480083FE801B41F288339842F3D90320A6E03E
:10115800052B11D0044B1A6A22F001021A621A6A8E
:1011680022F004021A62E0E7001002400000424246
:1011780080044242007000404D4B1A6A42F004025B
:101188001A621A6A42F001021A62CEE7FFF75CFEA1
:101198000646474B1B6A13F0020F08D0FFF754FEB0
:1011A800801B41F288339842F3D9032077E0E5B9F0
:1011B800E369002B72D03E4A526802F00C02082AFA
:1011C80056D0022B17D03B4B00221A60FFF73CFE8B
:1011D8000446374B1B6813F0007F47D0FFF734FEF7
:1011E800001B0228F5D9032059E0314AD36923F0BE
:1011F8008053D361DCE72F4B00221A60FFF724FEEF
:1012080005462B4B1B6813F0007F06D0FFF71CFE2A
:10121800401B0228F5D9032041E0236AB3F5803F3B
:101228001AD023494B6823F47413226A606A024374
:1012380013434B601F4B01221A60FFF705FE04465B
:101248001B4B1B6813F0007F0ED1FFF7FDFD001B41
:101258000228F5D9032022E0154A536823F4003305
:10126800A1680B435360DCE7002018E0002016E07B
:10127800012B16D00E4B5B6803F48031226A914231
:1012880011D103F47013626A93420ED1002006E074
:1012980001207047012002E0012000E0002002B098
:1012A80070BD0120FBE70120F9E70120F7E700BF47
:1012B800001002406000424286B0164B0FCB0DF181
:1012C800180C0CE90F0040F20123ADF80430124B62
:1012D8005B6803F00C02082A02D0104806B0704779
:1012E800C3F38342624412F8102C13F4803F0CD0ED
:1012F800094B5B68C3F34043634413F8143C074845
:1013080000FB02F0B0FBF3F0E8E7054800FB02F051
:10131800E4E700BF944300080010024000127A007E
:1013280000093D00002800F0A08070B50D46044675
:10133800524B1B6803F007038B420BD24F4A1368CA
:1013480023F007030B431360136803F007038B4272
:1013580040F08D80236813F0020F17D013F0040FAC
:1013680004D0474A536843F4E0635360236813F09A
:10137800080F04D0424A536843F460535360404A0C
:10138800536823F0F003A1680B435360236813F0FC
:10139800010F31D06368012B20D0022B25D0384AA9
:1013A800126812F0020F64D035494A6822F003022D
:1013B80013434B60FFF748FD0646314B5B6803F06B
:1013C8000C036268B3EB820F16D0FFF73DFD801B5C
:1013D80041F288339842F0D9032045E0284A126840
:1013E80012F4003FE0D101203EE0254A126812F0D5
:1013F800007FD9D1012037E0204B1B6803F0070399
:10140800AB420AD91D4A136823F007032B43136024
:10141800136803F00703AB422DD1236813F0040FC0
:1014280006D0174A536823F4E063E1680B4353601E
:10143800236813F0080F07D0114A536823F4605348
:10144800216943EAC1035360FFF736FF0C4B5B6821
:10145800C3F303130B4AD35CD8400B4B18600B4BF8
:101468001868FFF7ADFC002070BD0120704701200F
:10147800FAE70120F8E70120F6E700BF0020024064
:1014880000100240A84300080800002004000020C3
:10149800014B1868704700BF0800002008B5FFF727
:1014A800F7FF044B5B68C3F30223034AD35CD840BD
:1014B80008BD00BF00100240B843000808B5FFF798
:1014C800E7FF044B5B68C3F3C223034AD35CD840ED
:1014D80008BD00BF00100240B843000870B582B0D4
:1014E8000446036813F0010F34D03E4BDB6913F058
:1014F800805F47D13B4BDA6942F08052DA61DB69A1
:1015080003F080530193019B0125374B1B6813F4AB
:10151800807F39D0334B1B6A13F4407311D0626853
:1015280002F440729A420CD02E4A136A23F4407097
:101538002E4901260E6000260E60106213F0010F7E
:1015480036D1284A136A23F4407361680B43136247
:10155800002D3ED1236813F0020F06D0214A5368AC
:1015680023F44043A1680B435360236813F0100F22
:1015780034D01C4A536823F4800361690B435360D9
:1015880000202CE00025C0E7174A136843F4807355
:101598001360FFF759FC0646134B1B6813F4807F52
:1015A800B8D1FFF751FC801B6428F5D9032016E059
:1015B800FFF74AFC06460B4B1B6A13F0020FC0D11B
:1015C800FFF742FC801B41F288339842F3D903208D
:1015D80005E0D36923F08053D361BBE7002002B054
:1015E80070BD00BF0010024000700040400442423D
:1015F80010B586B004463D4B0FCB0DF1180C0CE925
:101608000F0040F20123ADF80430601E0F2866D8A1
:10161800DFE800F0385A65326565653565656565EA
:1016280065656508324B5A68186810F0807057D0A5
:10163800C2F3834306A90B4413F8100C12F4803F3D
:1016480016D02B4B5B68C3F340430B4413F8142CA0
:10165800284BB3FBF2F300FB03F0254B5B6813F454
:10166800800F3DD14000244BA3FB0030400837E0F9
:10167800224B03FB00F0F0E7FFF71EFE30E0FFF718
:101688001BFE2DE01A4B1B6A40F202321A40B2F5DB
:10169800817F27D003F44073B3F5007F04D0B3F5FE
:1016A800407F09D000201BE0114A526A12F0020F55
:1016B800F5D049F6404013E00D4B186810F400309F
:1016C8000ED04FF224400BE0FFF7F8FE084B5B68A2
:1016D800C3F3813301335B00B0FBF3F000E000207B
:1016E80006B010BD4FF40040FAE700BF944300086D
:1016F8000010024000127A00ABAAAAAA00093D0015
:10170800F0B482B000252C46ABE0854FBB4210D028
:1017180007D9844FBB420CD007F58037BB4208D0AD
:1017280013E0A7F58017BB4203D007F57027BB422B
:1017380007D18B68002B60D0012B59D04261082556
:1017480003E0A7F58017BB42F3D0FF2E57D8844695
:10175800FF2E57D8A200DCF800300F27974023EA65
:10176800070305FA02F21343CCF800304B6813F074
:10177800805F75D06C4B9A6942F001029A619B694F
:1017880003F001030193019BA208971C674B53F8D0
:1017980027C004F003039F000F23BB402CEA030C6F
:1017A800634B984234D003F58063984200F09480EC
:1017B80003F58063984200F0918003F580639842B6
:1017C80000F08E8003F58063984200F08B8003F56B
:1017D800806398421AD006231BE0CD68B5E7CD6830
:1017E8000435B2E7CD680835AFE7CD680C35ACE70E
:1017F80002610825A9E70025A7E70425A5E700F168
:10180800040CA5E7A4F108029200A4E7052300E070
:101818000023BB4043EA0C030232444F47F822300E
:101828004B6813F4803F5FD0424A13683343136018
:101838004B6813F4003F5DD03E4A5368334353600E
:101848004B6813F4801F5BD03A4A93683343936024
:101858004B6813F4001F59D0364AD3681E43D6602C
:1018680001340B6833FA04F256D00122A24003EA8D
:10187800020632EA0303F3D14B68122B3FF645AF59
:10188800122B3FF662AF01A757F823F03B17000869
:10189800E3170008ED170008FF17000853170008A2
:1018A8005317000853170008531700085317000868
:1018B8005317000853170008531700085317000858
:1018C8005317000853170008531700085317000848
:1018D800E7170008F317000801239AE7022398E79F
:1018E800032396E7042394E7124A136823EA0603BE
:1018F80013609DE70F4A536823EA060353609FE786
:101908000C4A936823EA06039360A1E7094AD3685F
:1019180023EA0606D660A3E702B0F0BC704700BF12
:1019280000002210000031100010024000000140A9
:1019380000080140000401408368194201D00120D9
:101948007047002070470AB10161704709040161BE
:101958007047000000283AD010B4024600681D4BBA
:10196800984229D81C4B03441C49A1FB03131B09AB
:101978009B0013641A4BD363022382F82130016859
:1019880021F47F5121F03001536894682343D468CF
:101998002343146923435469234394692343D46933
:1019A80023430B43036000209063012382F8213016
:1019B80082F8200010BC70470A4B03440749A1FB7A
:1019C80003131B099B001364074BD363D4E701205F
:1019D800704700BF07040240F8FFFDBFCDCCCCCC58
:1019E80000000240F8FBFDBF0004024038B5C36B9D
:1019F8001A6804682568016C04238B40134200F0C0
:101A08009B8015F0040F00F09780236813F0200FD7
:101A180003D1236823F0040323600368AA4A93428E
:101A280046D9783A934224D01432934228D01432BB
:101A3800934227D01432934227D01432934227D0AE
:101A48001432934227D01432934227D002F562729F
:101A5800934226D01432934225D01432934224D094
:101A68001432934202D04FF4802203E04FF48042B4
:101A780000E00422954B5A60C36A03B1984738BD09
:101A88004022F7E74FF48062F4E74FF48042F1E731
:101A98004FF48022EEE74FF48002EBE74FF08062CC
:101AA800E8E70422E6E74022E4E74FF48062E1E752
:101AB800874A934224D01432934225D01432934259
:101AC80024D01432934224D01432934224D01432B6
:101AD800934224D01432934224D002F56272934286
:101AE80023D01432934222D01432934221D014329C
:101AF800934202D04FF4802203E04FF4804200E08A
:101B08000422744B5A60B7E74022FAE74FF4806228
:101B1800F7E74FF48042F4E74FF48022F1E74FF4FF
:101B28008002EEE74FF08062EBE70422E9E740220B
:101B3800E7E74FF48062E4E702238B40134200F0AA
:101B4800A38015F0020F00F09F80236813F0200F88
:101B580006D1236823F00A032360012380F821308B
:101B68000368594A93424BD9783A934224D01432A5
:101B780093422DD0143293422CD0143293422CD05D
:101B8800143293422CD0143293422CD01432934204
:101B98002CD002F5627293422BD0143293422AD091
:101BA8001432934229D01432934202D04FF40032B7
:101BB80003E04FF4005200E00222444B5A60002335
:101BC80080F82030836A002B3FF459AF984756E7D6
:101BD8002022F2E74FF40072EFE74FF40052ECE7EF
:101BE8004FF40032E9E74FF40012E6E74FF00072D5
:101BF800E3E70222E1E72022DFE74FF40072DCE7A7
:101C0800334A934224D01432934225D0143293425B
:101C180024D01432934224D01432934224D0143264
:101C2800934224D01432934224D002F56272934234
:101C380023D01432934222D01432934221D014324A
:101C4800934202D04FF4003203E04FF4005200E018
:101C58000222204B5A60B2E72022FAE74FF40072C2
:101C6800F7E74FF40052F4E74FF40032F1E74FF48E
:101C78000012EEE74FF00072EBE70222E9E72022BC
:101C8800E7E74FF40072E4E7082303FA01F1114291
:101C98003FF4F5AE15F0080F3FF4F1AE236823F0DA
:101CA8000E032360026CC16B012303FA02F24A603F
:101CB800836380F82130002380F82030036B002BE9
:101CC8003FF4DDAE9847DAE68000024000040240A7
:101CD8000800024000000240074AD36823F4E0638A
:101CE8001B041B0C000200F4E060034343F0BF63D5
:101CF80043F40033D360704700ED00E030B4174B75
:101D0800DB68C3F30223C3F10704042C28BF0424AF
:101D18001D1D062D18D9033B4FF0FF3505FA04F4B5
:101D280021EA0401994005FA03F322EA030319435F
:101D380000280BDB0901C9B200F1604000F56140E1
:101D480080F8001330BC70470023E5E700F00F006F
:101D58000901C9B2024B1954F4E700BF00ED00E0D5
:101D680014ED00E0002807DB00F01F024009012302
:101D78009340024A42F82030704700BF00E100E07B
:101D88000138B0F1807F0AD2064B5860064AF0212C
:101D980082F823100020986007221A6070470120FB
:101DA800704700BF10E000E000ED00E0014B0122A9
:101DB8001A60704720000E427047000000B585B0D9
:101DC80000230193029303931048114A0260836031
:101DD8000122027303754FF46021C16143600261FF
:101DE80000F03AFC60B901230193029300230393A6
:101DF80001A9064800F0BAFA28B905B05DF804FB55
:101E0800FEF76AFFEFE7FEF767FFF6E79C000020A2
:101E18000024014000B587B0002302930393049384
:101E280005930268114B9A4202D007B05DF804FB93
:101E380003F56C439A6942F400729A619A6902F454
:101E480000720092009A9A6942F004029A619B69B2
:101E580003F004030193019B0223029303230393DA
:101E680002A90348FFF74CFCDFE700BF002401404C
:101E78000008014000B583B00A4B5A6942F00102DC
:101E88005A615B6903F001030193019B002211462B
:101E98000D20FFF733FF0D20FFF764FF03B05DF857
:101EA80004FB00BF0010024008B50B480B4B036051
:101EB8000B4B436000238360C3604FF48042026190
:101EC80043618361C361036200F058FC00B908BD37
:101ED800FEF702FFFBE700BFCC00002000540040E3
:101EE800A086010010B586B00023029303930493E3
:101EF80005930268114B9A4201D006B010BD104CF0
:101F0800A36943F00803A361A36903F008030093DE
:101F1800009BC0230293122303930323059302A972
:101F28000848FFF7EDFBE36943F40013E361E36955
:101F380003F400130193019BDFE700BF0054004046
:101F480000100240000C014008B50848084B036027
:101F58004FF0FF3343604FF48073836000F03AFD25
:101F680000B908BDFEF7B8FEFBE700BF200100205E
:101F78000028004002680C4B9A4200D0704700B518
:101F880083B0FFF713FF094BDA6942F00062DA61A8
:101F9800DB6903F000630193019B054B01221A6082
:101FA80003B05DF804FB00BF0028004000100240A9
:101FB8003C04424208B50E480E4B036000234360C0
:101FC80083604FF40062C260036143614FF40072A2
:101FD80082610822C2610362436283620A23C36288
:101FE80000F00AFE00B908BDFEF776FEFBE700BF69
:101FF8008C0100200030014008B50D480D4B0360EE
:102008004FF48273436000238360C36003614361BC
:102018004FF400728261C3610362436283620A23E0
:10202800C36200F0E9FD00B908BDFEF755FEFBE705
:10203800340100200038004070B588B000230493B4
:102048000593069307930368394A934204D0394AA3
:10205800934243D008B070BD0446374B9A6942F4A6
:1020680080529A619A6902F480520092009A9A69A1
:1020780042F004029A619B6903F004030193019BF7
:10208800A02304930025059506952C4E04A93046F7
:10209800FFF736FB4023049302230593032307939A
:1020A80004A93046FFF72CFB2548264B0360102374
:1020B800436085608023C3604FF4807303614FF4ED
:1020C800806343618561C561FFF744FC18B91C4B07
:1020D800A3645C62BEE7FEF7FFFDF8E7164BDA691A
:1020E80042F48042DA61DA6902F480420292029A8A
:1020F8009A6942F008029A619B6903F00803039306
:10210800039B4FF42043049302230593032307936F
:102118000D4C04A92046FFF7F3FA4FF480430493CB
:1021280000230593069304A92046FFF7E9FA91E7EF
:102138000030014000380040001002400008014013
:10214800E401002030000240000C014008B50A48B4
:102158000A4B03604FF4E133436000238360C3609C
:1021680003610C2242618361C36100F0BFFF00B9C3
:1021780008BDFEF7B1FDFBE728020020003801404A
:1021880010B586B000230293039304930593026865
:10219800174B9A4201D006B010BD03F558439A690F
:1021A80042F480429A619A6902F480420092009A4D
:1021B8009A6942F004029A619B6903F0040301934F
:1021C800019B4FF4007302930223039303230593A7
:1021D800084C02A92046FFF793FA4FF48063029354
:1021E80000230393049302A92046FFF789FAD2E754
:1021F8000038014000080140F0B583B005460C46A0
:1022080000230193FEF720FE2B689A6812F4807F62
:1022180023D107465A6812F4807F03D1DB6A13F48E
:10222800700F24D04A4B1E680220FFF7E1F9B6FB75
:10223800F0F02B681969474A11422FD1D96802F189
:102248005C4211422AD11969434A114239D1DA68EC
:10225800424B1A4237D029263AE0AB6A43F02003B2
:10226800AB62002385F82430012003B0F0BD2B6851
:102278001B6813F0020F48D1B4F1FF3FF7D024B127
:10228800FEF7E2FDC01BA042F1D9AB6A43F004039C
:10229800AB62002385F824300320E6E719692E4A4B
:1022A800114204D1D96802F16E4211420DD0196968
:1022B8002B4A0A405AB9DA68294B13405BB1FC260D
:1022C80006E0292604E0142602E0542600E0FC2655
:1022D80006FB00F604E05426FAE7019B013301935C
:1022E800019BB34211D2B4F1FF3FF6D024B1FEF7FF
:1022F800ABFDC31BA342F0D9AB6A43F00403AB6246
:10230800002385F824300320AFE72B686FF0120212
:102318001A60AB6A43F40073AB622B689B6803F4E2
:102328006023B3F5602F01D000209EE7287B60B9B9
:10233800AB6A23F48073AB62AB6A13F4805F94D109
:10234800AB6A43F00103AB628FE700208DE700BF63
:10235800080000202449922492244912922449001A
:10236800499224000368D86C7047000030B482B0EA
:102378000022019290F82420012A00F08B80034665
:10238800012280F824204A68062A29D80568686B43
:1023980002EB8202053A1F24944020EA04000C68EC
:1023A80004FA02F202436A630A68092A38D91D68E6
:1023B800E86802EB42021E3A0724944020EA04002F
:1023C8008C6804FA02F20243EA600A68103A012AA9
:1023D80034D90020002283F8242002B030BC704792
:1023E8000C2A0ED80568286B02EB8202233A1F24B8
:1023F800944020EA04000C6804FA02F202432A63BB
:10240800D2E70568E86A02EB8202413A1F24944049
:1024180020EA04000C6804FA02F20243EA62C3E705
:102428001D68286902EB42020724944020EA040050
:102438008C6804FA02F202432A61C6E71A68164851
:10244800824205D09A6A42F020029A620120C1E7CE
:10245800906810F4000F1BD1906840F40000906061
:102468000A68102A01D00020B4E70C4A12680C4907
:10247800A1FB0212920C02EB82025200019202E0CE
:10248800019A013A0192019A002AF9D10020A1E7A4
:1024980000209FE70220A0E7002401400800002058
:1024A80083DE1B43806A704730B583B000230193F5
:1024B80003689A6812F0010F2DD104469A6842F019
:1024C80001029A60154B1B68154AA2FB03239B0C5B
:1024D8000193019B1BB1019B013B0193F9E7FEF7B7
:1024E800B3FC054623689B6813F0010F11D1FEF772
:1024F800ABFC431B022BF5D9A36A43F01003A3627C
:10250800E36A43F00103E362002384F824300120E6
:1025180002E0002000E0002003B030BD08000020E9
:1025280083DE1B4390F82430012B68D010B5044695
:10253800012380F82430FFF7B7FF00285BD1A36A96
:1025480023F4407323F0010343F48073A3622368E8
:102558002C4A934227D0A26A22F48012A2625A68B7
:1025680012F4806F05D0A26A22F4405242F48052DD
:10257800A262A26A12F4805F2BD0E26A22F00602FD
:10258800E262002284F824206FF002021A602368B5
:102598009A6802F46022B2F5602F1DD09A6842F45E
:1025A80080129A602AE0A2F58062526812F4702FB5
:1025B800D1D0A26A42F48012A262134A526812F47D
:1025C800806FD6D0A26A22F4405242F48052A262AE
:1025D800CFE70022E262D4E70A4A934204D09A681D
:1025E80042F4A0029A6009E0A2F58062526812F4EF
:1025F800702FD3D1F3E7002384F8243010BD0220D4
:10260800704700BF002801400024014038B5036826
:102618009A6812F0010F01D1002038BD04469A686B
:1026280022F001029A60FEF70FFC054623689B68BA
:1026380013F0010F0ED0FEF707FC431B022BF5D950
:10264800A36A43F01003A362E36A43F00103E36261
:102658000120E2E70020E0E7002800F08680F8B5D6
:102668000446836A002B50D02046FFF7CFFFA36AA9
:1026780013F0100373D1002871D1A26A22F4885292
:1026880022F0020242F00202A26262682668384919
:102698008E4240D0E1690A43217B42EA4102A568A3
:1026A800B5F5807F02D0012D3CD01D46277D012F36
:1026B8003BD0716821F46941294371602568AE688F
:1026C8002C4931401143A960A168B1F5807F01D040
:1026D800012902D12369013B1B052568E96A21F418
:1026E80070010B43EB6223689968234B0B409A42B5
:1026F8002CD0A36A23F0120343F01003A362E36A09
:1027080043F00103E36201202EE0C36280F8243025
:10271800FFF780FBA8E7E169B1F5402FBBD14FF483
:102728000021B8E74FF48075C0E731B9A1690139D4
:1027380045EA413141F40065BBE7A16A41F0200157
:10274800A162E16A41F00101E162B2E70023E362BC
:10275800A36A23F0030343F00103A36204E0A36A1E
:1027680043F01003A3620120F8BD0120704700BFA9
:10277800003C0140FDF7E1FFFE0E1FFF002800F0BE
:10278800CC80F8B5044690F83D30002B77D0242350
:1027980084F83D302268136823F00103136022682F
:1027A800136843F4004313602268136823F400435A
:1027B8001360FEF773FE62685A4B9A4264D85A4B0C
:1027C80098428CBF00230123002B40F0A880574D6E
:1027D800A5FB0035AF0C2668716821F03F0141EA7E
:1027E8009541716021680B6A23F03F0365684D4A83
:1027F80095424FD87A1C13430B622568E96921F486
:102808004F4121F0FF016368464A93424CD8013892
:102818005B00B0FBF3F0013040F6FC73184278D04F
:10282800C0F30B030B43EB6121680B6823F0C00373
:10283800E269206A024313430B6021688B6823F422
:10284800034323F0FF032269E068024313438B60CC
:102858002168CB6823F0FF036269A0690243134330
:10286800CB602268136843F00103136000202064E2
:10287800202384F83D30206384F83E00F8BD80F8BA
:102888003C30FFF72FFB82E7294B98428CBF00238F
:10289800012399E74FF4967202FB07F2254DA5FB39
:1028A800025292090132A6E7A268BAB9461E03EBA2
:1028B8004307B6FBF7F60136C6F30B06B6FA86F6FB
:1028C800760946BBC2B9421E03EB4303B2FBF3F2DF
:1028D8000132C2F30B0242F40043A3E7461E03EBA6
:1028E800830707EB8707B6FBF7F60136C6F30B0637
:1028F800B6FA86F67609E4E7421E03EB830303EB98
:102908008303B2FBF3F20132C2F30B0242F44043F9
:1029180088E7042386E7012384E701207047012024
:10292800ACE700BFA08601007F841E0083DE1B4346
:10293800FF083D00D34D621038B50446FEF784FA0F
:10294800054623685A6812F0200F07D1FEF77CFA73
:10295800401BB0F57A7FF4D9032004E05A6842F0AE
:1029680010025A60002038BD38B504460268536822
:1029780023F010035360FEF767FA054623685B6887
:1029880013F0200F07D1FEF75FFA401BB0F57A7FEE
:10299800F4D9032000E0002038BDC0B138B50546A1
:1029A8000268536823F008035360FEF74DFA0446A3
:1029B8002B685B6813F0080F07D1FEF745FA001B78
:1029C800B0F57A7FF4D9032000E0002038BD01205B
:1029D80070470000002857D010B50446437C4BB11F
:1029E800022363742046FFF7D8FF38B104236374C9
:1029F800012010BD0374FFF7BDFAF1E72046FFF789
:102A08009BFF60BB2268536823F007035360A368E9
:102A180023B11E4A136B23F0010313631B4AD36AC5
:102A280023F46073A1680B43D3626268B2F1FF3F7D
:102A380019D021688B6823F00F0343EA12438B6097
:102A48002168CB681B0C1B0492B21343CB60204651
:102A5800FFF78AFF88B1042363740120C9E70423C0
:102A680063740120C5E70120FEF7C2FD08B1421ECC
:102A7800DFE7042363740120BBE70023E37301232A
:102A88006373A3736374B4E701207047006C00405C
:102A98002DE9F04782B00546884617461E46FEF7E0
:102AA800D3F90A9B1B1A03EB0609FEF7CDF98246F8
:102AB8002A4B1B68C3F3CB3309FB03F301932B6841
:102AC8009C6838EA04030CBF01240024BC4240D0AF
:102AD800B6F1FF3FF3D0FEF7B7F9A0EB0A0048457F
:102AE8000AD2B9F1000F07D0019A02B14A46019BF8
:102AF800013B01939146E2E72A68536823F0E0031B
:102B080053606B68B3F5827F0BD0AB6AB3F5005F97
:102B180014D0012385F85130002385F85030032064
:102B280018E0AB68B3F5004F02D0B3F5806FECD175
:102B38002A68136823F040031360E6E72A681368DD
:102B480023F4005313602A68136843F40053136096
:102B5800DFE7002002B0BDE8F08700BF08000020D2
:102B680010B582B004460B46009200228021FFF780
:102B78008FFF08B902B010BD636D43F02003636591
:102B88000320F7E710B582B004460B464168B1F55B
:102B9800827F10D06168B1F5827F03D1A168B1F559
:102BA800806F15D00092002280212046FFF770FF29
:102BB800E0B902B010BD8168B1F5004F02D0B1F59F
:102BC800806FE7D12068016821F040010160E1E7EA
:102BD8000092002201212046FFF75AFF0028E8D082
:102BE800636D43F0200363650320E2E7636D43F000
:102BF800200363650320DCE7002856D010B504469F
:102C0800436A33B94368B3F5827F05D00023C361B3
:102C180002E00023036143610023A36294F851306A
:102C2800002B3CD0022384F851302268136823F02B
:102C380040031360636803F48273A26802F40442D9
:102C48001343E26802F400621343226902F00202AD
:102C58001343626902F001021343A26902F400728D
:102C68001343E26902F038021343226A02F0800239
:102C78001343A26A02F40052216813430B60638B6A
:102C8800226803F0040353602268D36923F40063C5
:102C9800D36100206065012384F8513010BD84F8A9
:102CA80050302046FFF7C8F9BCE7012070472DE9EE
:102CB800F04383B01F460A9D90F85030012B00F076
:102CC8001081044688469146012380F85030FEF76B
:102CD800BBF8064694F85130DBB26268012B0AD083
:102CE800B2F5827F40F0E380A268002A40F0E980D4
:102CF800042B40F0E880B8F1000F00F0E680B9F14D
:102D0800000F00F0E480002F00F0E38094F85130C9
:102D1800DBB2042B02D0052384F85130002363650D
:102D2800C4F83890E787A787C4F83080E786A78675
:102D38002364636423681A6812F0400F03D11A6889
:102D480042F040021A60E368B3F5006F11D063687F
:102D58000BB1012F0BD1226B236812781A73236BE6
:102D680001332363E38E9BB2013B9BB2E3860127C9
:102D78006BE063680BB1012F0BD1226B23681288BB
:102D8800DA60236B02332363E38E9BB2013B9BB271
:102D9800E38601271CE023689A6812F0010F0ED021
:102DA800E28F92B25AB1DA68A36B1A80A36B02332E
:102DB800A363E38F9BB2013B9BB2E3870127FEF736
:102DC80043F8801BA84203D3B5F1FF3F40F083804E
:102DD800E38E9BB21BB9E38F9BB2002B53D02368C1
:102DE8009A6812F0020FD6D0E28E92B2002AD2D0A0
:102DF800002FD0D0226B1288DA60236B0233236352
:102E0800E38E9BB2013B9BB2E3860027C3E72368AE
:102E18009A6812F0010F0ED0E28F92B25AB1DA68B6
:102E2800A36B1A70A36B0133A363E38F9BB2013BBF
:102E38009BB2E3870127FEF707F8831BAB4202D357
:102E4800B5F1FF3F49D1002D49D0E38E9BB213B9AC
:102E5800E38F9BB2BBB123689A6812F0020FD6D0F9
:102E6800E28E92B2002AD2D0002FD0D0226B1278F4
:102E78001A73236B01332363E38E9BB2013B9BB22E
:102E8800E3860027C3E7324629462046FFF768FE57
:102E980048B9A36863B901932368DA6801929B680B
:102EA8000193019B04E020236365012000E00220D8
:102EB800012384F85130002384F8503003B0BDE872
:102EC800F0830220F4E70220F2E70120F0E7012076
:102ED800EEE70120ECE70320EAE70320E8E7032018
:102EE800E6E70220EAE72DE9F04383B00446884686
:102EF80091461D464368B3F5827F38D094F8503028
:102F0800012B00F0A880012384F85030FDF79CFFC6
:102F1800074694F85160F6B2012E40F08980B8F166
:102F2800000F00F08680B9F1000F00F082800423C2
:102F380084F8513000236365C4F83880A4F83C90C5
:102F4800A4F83E902363A386E38623646364A3689E
:102F5800B3F5004F18D023681A6812F0400F03D158
:102F68001A6842F040021A60E36813B340E08368CD
:102F7800002BC3D1042380F85130009513460A462C
:102F8800FFF795FE06465AE02268136823F04003CF
:102F980013602268136823F480431360DBE7FDF7AE
:102FA80053FFC01BA84202D3B5F1FF3F4BD1002D00
:102FB8004BD0E38F9BB2002B2ED023689A6812F077
:102FC800010FECD0A26B1B7B1370A36B0133A363BF
:102FD800E38F9BB2013B9BB2E387EAE7FDF734FF3F
:102FE800C01BA84202D3B5F1FF3F30D1002D30D02D
:102FF800E38F9BB283B123689A6812F0010FEDD07A
:10300800DA68A36B1A80A36B0233A363E28F92B2D0
:10301800013A92B2E287EBE73A4629462046FFF7A3
:10302800B1FD08B120236365636D13B9002600E084
:103038000226012384F85130002384F850303046AA
:1030480003B0BDE8F0830326F3E70326F1E7032680
:10305800EFE70326EDE70226F1E7000010B5044686
:103068000268136923F44053C1680B4313618368F2
:103078000269134342691A430168CB6823F4B053C9
:1030880023F00C031343CB600268536923F44073A5
:1030980081690B4353610268124B9A421FD0FEF7B5
:1030A800FDF900EB800303EB830362689200B3FB36
:1030B800F2F20D48A0FB02314909642303FB1123F6
:1030C8001B013233A0FB03235B0903F0F00202EB80
:1030D800011203F00F03216813448B6010BDFEF743
:1030E800EDF9DEE7003801401F85EB5158B310B504
:1030F800044690F839300BB3242384F83930226819
:10310800D36823F40053D3602046FFF7A7FF226853
:10311800136923F4904313612268536923F02A0347
:1031280053612268D36843F40053D3600020E063FE
:10313800202384F8393084F83A3010BD80F83830CC
:10314800FFF71EF8D8E701207047000030B585B0BA
:10315800002400940194029403940A4D01224FF430
:1031680000412846FEF7EFFB4FF40043009311237C
:10317800019302940323039369462846FEF7C0FA95
:1031880005B030BD0014014000B585B0002303939D
:103198004FF4004200920193029369460248FEF7F9
:1031A800AFFA05B05DF804FB001401402DE9F043C7
:1031B80083B007468846002303604360FFF7C6FFD5
:1031C8005E4C00224FF400412046FEF7BCFB0F2066
:1031D800FDF740FE01224FF400412046FEF7B3FB05
:1031E800FFF7D2FF00244FF400415448FEF7A4FB38
:1031F800012806D10134A4B242F210739C42F2D9DC
:1032080066E000244FF400414C48FEF795FB012886
:1032180006D00134A4B242F210739C42F2D957E0AE
:1032280000244FF400414548FEF786FB012806D1EB
:103238000134A4B242F210739C42F2D948E0404BE8
:1032480093E8030000908DF804104FF0000928E07F
:1032580001344FF400413948FEF76EFB0128F7D1DD
:10326800002500E001354FF400413448FEF764FBC7
:103278000128F7D0A5420AD9012303FA06F202ABC6
:1032880003EB090111F8083C134301F8083C013E1F
:10329800F6B2FF2E01D00024DBE709F101095FFA3D
:1032A80089F9B9F1040F01D80726F2E79DF8005013
:1032B8009DF801002B18DBB29DF802402344DBB2D5
:1032C8009DF803603344DBB29DF80420934203D099
:1032D800384603B0BDE8F083B8F1010F0CD0B8F15F
:1032E800000FF5D12846FDF7CBFB38609DF80200AA
:1032F800FDF7C6FB7860EBE740EA0520FDF7C4FB65
:103308001049FDF797F8386014F0800F08D146EAA5
:103318000420FDF7B9FB0B49FDF78CF87860DEE770
:1033280004F07F008DF8020046EA0020FDF7ACFBB0
:103338000549FDF77FF87860D1E700BF0014014028
:103348004C430008CDCCCC3DCDCCCCBD002103E016
:103358000B4B5B58435004310A480B4B42189A42B6
:10336800F6D30A4A02E0002342F8043B084B9A428B
:10337800F9D3FEF721FD00F00FF8FDF735FC704793
:103388006044000800000020700000207000002049
:1033980078020020FEE7000070B500260C4D0D4CA9
:1033A800641BA410A64209D100F0C0FF00260A4DF4
:1033B8000A4C641BA410A64205D170BD55F8043B05
:1033C80098470136EEE755F8043B98470136F2E78F
:1033D8005844000858440008584400085C44000851
:1033E80003460244934200D1704703F8011BF9E7F2
:1033F8000FB40A4B13B51C6824B1A36913B920464E
:1034080000F066F805AB2046049AA168019300F025
:1034180081F902B0BDE8104004B070470C000020EC
:10342800002310B50446C0E90033C0E904338360C3
:1034380081814366C2818361194608225C30FFF7A7
:10344800CFFF054B24626362044BA362044BE36223
:10345800044B236310BD00BFC93C0008EB3C0008C7
:10346800233D0008473D0008014900F0AFB800BF00
:103478002140000870B568254A1E55430E4605F1DF
:10348800740100F0C5F8044640B10021C0E90016F7
:103498000C30A06005F16802FFF7A2FF204670BD5E
:1034A800014800F0B3B800BF70020020014800F0E6
:1034B800AEB800BF70020020014800F0A7B800BFF6
:1034C8006B020020014800F0A2B800BF6B02002088
:1034D80010B50446FFF7F0FFA3691BB1BDE8104023
:1034E800FFF7F0BFC4E912332365134B134A1B6877
:1034F800A262A34208BF0123204608BFA36100F0CF
:103508001FF86060204600F01BF8A060204600F01D
:1035180017F800220421E0606068FFF781FF0122AC
:103528000921A068FFF77CFF02221221E068FFF75B
:1035380077FF0123A361D1E7C04300087134000875
:10354800F8B50746FFF7ACFF1E4B1E68B36913B901
:103558003046FFF7BDFF4836D6E90134013B03D5B5
:1035680033680BB33668F7E7B4F90C50D5B9164B86
:1035780004F15800E360656600F047F8FFF796FF2E
:1035880008222946C4E90155C4E904552560A56106
:1035980004F15C00FFF724FFC4E90D55C4E9125596
:1035A8002046F8BD6834D9E704213846FFF762FFA2
:1035B800044630600028D5D1FFF778FF0C233B6024
:1035C800EEE700BFC04300080100FFFF2DE9F84304
:1035D80006468846002700F14804D4E90195B9F168
:1035E800010905D52468002CF7D13846BDE8F883D1
:1035F800AB89012B07D9B5F90E30013303D0294621
:103608003046C04707436835E9E770477047704759
:10361800F8B5CD1C25F0030508350C2D38BF0C2551
:10362800002D064601DBA94203D90C233360002094
:10363800F8BD00F0B1FD21490A6814469CB9204F35
:103648003B6823B92146304600F02AFB38602946FA
:10365800304600F025FB431C23D10C233046336051
:1036680000F0A0FDE3E723685B1B17D40B2B03D9FD
:1036780023601C44256004E06368A2420CBF0B6011
:103688005360304600F08EFD04F10B00231D20F03E
:103698000700C21ACCD01B1AA350C9E72246646897
:1036A800CCE7C41C24F00304A042E3D0211A30461E
:1036B80000F0F6FA0130DDD1CFE700BF8C00002022
:1036C80090000020936810B4013B002B936007DA48
:1036D8009469A34201DB0A2902D110BC00F034BB73
:1036E8001368581C10601970084610BC7047F8B56C
:1036F80006460F461446D518AC4201D1002007E013
:103708003A46304614F8011BFFF7DCFF431CF3D19F
:10371800F8BD00002DE9F04F0D46144698460646C0
:103728009DB018B183690BB9FFF7D2FE894B9D4252
:103738001BD175686B6ED90705D4AB899A0502D47D
:10374800A86DFFF763FFAB891B0701D52B69EBB9A0
:103758002946304600F05CFBC0B16B6EDC070ED525
:103768004FF0FF301DB0BDE8F08F7B4B9D4201D17B
:10377800B568DFE7794B9D4208BFF568DAE7AB89A2
:103788009805EDD4A86DFFF742FFE9E700230993F8
:1037980020238DF8293030234FF00109CDF80C8013
:1037A800DFF8BC818DF82A3023469A4613F8012B9E
:1037B8000AB1252AF9D1BAEB040B0BD05B46224695
:1037C80029463046FFF793FF013000F0AA80099A96
:1037D8005A4409929AF80030002B00F0A280002386
:1037E8004FF0FF32CDE905230AF1010A049307934C
:1037F8008DF853301A935446052214F8011B584883
:1038080000F0BCFC049AD8B9D10644BF20238DF837
:103818005330130744BF2B238DF853309AF80030E8
:103828002A2B15D0544600204FF00A0C079A21463F
:1038380011F8013B303B092B4ED9B0B1079214E087
:10384800A0EB080309FA03F31343A2460493D2E753
:10385800039B191D1B680391002BBBBF5B4242F001
:10386800020207930793B8BF049223782E2B0CD13A
:1038780063782A2B35D1039B02341A1D1B680392E7
:10388800002BB8BF4FF0FF330593DFF8E4A0032205
:103898005046217800F072FC40B14023A0EB0A00AA
:1038A80003FA00F0049B01340343049314F8011B4A
:1038B80006222C488DF8281000F060FC00283FD024
:1038C800294B1BBB039B073323F0070308330393E0
:1038D800099B3B44099367E70C4601200CFB023225
:1038E800A5E700234FF00A0C19460134059320463A
:1038F80010F8012B303A092A03D9002BC5D00591BD
:10390800C3E7044601230CFB0121F0E703AB009356
:103918002A463046154B04A9AFF300800746781CA9
:10392800D6D16B6ED90705D4AB899A0502D4A86D98
:10393800FFF76DFEAB895B063FF512AF099811E7FB
:1039480003AB00932A463046084B04A900F082F8DE
:10395800E4E700BFE443000804440008C443000847
:10396800244400082E44000800000000F736000830
:103978002A4400082DE9F047164699468A680B69DB
:1039880007469342B8BF1346336091F843200C466C
:10399800DDF820800AB1013333602368990642BFFD
:1039A800336802333360256815F0060506D104F143
:1039B800190AE36832689B1AAB4228DC94F8432062
:1039C800131E226818BF012392062DD44946384693
:1039D80004F14302C047013020D02368E56803F0B2
:1039E8000603042B18BF002532684FF00006A368B1
:1039F80008BFAD1A226908BF25EAE5759342C4BF1E
:103A08009B1AED181A34B5421AD1002008E0012398
:103A1800524649463846C047013003D14FF0FF307F
:103A2800BDE8F0870135C4E73020E11881F843008C
:103A38005A1C94F845102244023382F84310C5E713
:103A48000123224649463846C0470130E6D00136B0
:103A5800D9E700002DE9FF470C46277E9146782FCD
:103A680080469A460C9904F1430207D8622F0AD877
:103A7800002F00F0D980582F00F0A48004F14206EE
:103A880084F842703AE0A7F16303152BF6D801A039
:103A980050F823F0F53A0008093B0008853A000879
:103AA800853A0008853A0008853A0008093B00086D
:103AB800853A0008853A0008853A0008853A0008E2
:103AC800173C0008393B0008F93B0008853A000814
:103AD800853A0008393C0008853A0008393B000857
:103AE800853A0008853A0008013C00080B6804F193
:103AF80042061A1D1B680A6084F842300123A4E0BC
:103B0800256808682E0600F104030AD505680B60CD
:103B1800002D03DA2D236D4284F843300A235E48D2
:103B280019E015F0400F05680B6018BF2DB2EFE7DC
:103B38000B682568181D0860280601D51D6802E075
:103B48006906FBD51D886F2F0CBF08230A2352482E
:103B5800002184F843106668002EA8BF2168A6607B
:103B6800A4BF21F0040121600DB9002E4DD01646E6
:103B7800B5FBF3F103FB1157C75D06F8017D2F462E
:103B8800BB420D46F4D9082B0BD12368DF0708D5B3
:103B9800236961689942DEBF302306F8013C06F1CB
:103BA800FF36921B22614B4621464046CDF800A0C5
:103BB80003AAFFF7DFFE01304CD14FF0FF3004B00D
:103BC800BDE8F087344884F845700E68236856F8D5
:103BD800045B1F060E6014D5D90744BF43F02003C9
:103BE80023601DB9236823F0200323601023AFE767
:103BF800236843F0200323607823284884F845305D
:103C0800E3E75E0648BFADB2E6E71646BBE70B68DA
:103C180026681D1D60690D6035061B6801D5186092
:103C280002E07106FBD51880002316462361BAE727
:103C38000B681A1D0A601E6800213046626800F091
:103C48009DFA08B1801B606063682361002384F8D3
:103C58004330A8E73246494640462369D0470130F9
:103C6800ABD023689B0713D4E068039B9842B8BF86
:103C78001846A4E70123324649464046D04701305A
:103C88009BD00135E36803995B1AAB42F2DCEBE7A2
:103C9800002504F11906F5E73544000846440008F4
:103CA80038B50023054D044608462B6000F028FB74
:103CB800431C02D12B6803B1236038BD7402002075
:103CC80010B50C46B1F90E1000F0BEFA0028ABBFD3
:103CD800636DA3891B1823F48053ACBF6365A3816C
:103CE80010BD2DE9F0411F468B890546DB050C46C2
:103CF800164605D502230022B1F90E1000F0C8F9C6
:103D0800A389324623F48053A38128463B46B4F95D
:103D18000E10BDE8F04100F069B810B50C46B1F9D5
:103D28000E1000F0B5F9431CA38915BF606523F494
:103D3800805343F48053A38118BFA38110BDB1F908
:103D48000E1000F0D3B80000F8B50E46144605462C
:103D580018B183690BB9FFF7BBFB214B9C422BD1F0
:103D68006C68A369A360A3891A072FD523696BB36D
:103D780023692068F6B2C01A63693746834204DCB7
:103D88002146284600F048F930BBA3680130013BC2
:103D9800A36023685A1C22601E706369834204D0A2
:103DA800A389DB0706D50A2E04D12146284600F050
:103DB80033F988B93846F8BD0A4B9C4201D1AC6842
:103DC800CFE7094B9C4208BFEC68CAE72146284662
:103DD80000F01EF80028CBD04FF0FF37EAE700BF0D
:103DE800E443000804440008C443000838B5044606
:103DF800084611460022054D2A601A4600F08EFA40
:103E0800431C02D12B6803B1236038BD7402002023
:103E1800324B70B51D6806460C4625B1AB6913B91F
:103E28002846FFF755FB2E4B9C420FD16C68A3899F
:103E3800B4F90C2019072CD4DD0611D409233360FA
:103E480042F040034FF0FF30A3813EE0254B9C42F7
:103E580001D1AC68EBE7244B9C4208BFEC68E6E76D
:103E6800580712D5616B41B104F14403994202D05D
:103E7800304600F09DF900236363A38923F02403EF
:103E8800A3810023636023692360A38943F00803A7
:103E9800A38123694BB9A38903F42073B3F5007F89
:103EA80003D02146304600F029F9A089B4F90C2046
:103EB80010F001030AD00023A36063695B42A36189
:103EC800236943B910F08000BAD170BD810758BF8B
:103ED8006369A360F4E70020F7E700BF0C00002047
:103EE800E443000804440008C443000838B500232C
:103EF800054D044608462B6000F0DAF9431C02D150
:103F08002B6803B1236038BD740200208A892DE92B
:103F1800F041054610070C4658D44B68002B05DCC9
:103F28000B6C002B02DC0020BDE8F081E66A002E55
:103F3800F9D0002312F480522F682B6032D0606DC4
:103F4800A3895A0705D56368C01A636B0BB1236C44
:103F5800C01A00230246E66A2846216AB047431C75
:103F6800A38906D129681D292CD82A4ACA40D60710
:103F780028D5002262602269D904226004D5421C37
:103F880001D12B6803B96065616B2F600029CAD025
:103F980004F14403994202D0284600F009F90020B0
:103FA8006063C1E7216A01232846B047411CC7D195
:103FB8002B68002BC4D01D2B01D0162B01D12F60EC
:103FC800B1E7A38943F04003A381ADE70F69002F50
:103FD800A9D0930718BF00230E6808BF4B69A6EB4A
:103FE80007080F608B60B8F1000F9CDD43463A4626
:103FF8002846216AA66AB047002806DCA3894FF044
:10400800FF3043F04003A3818EE70744A8EB000884
:10401800E9E700BF0100402038B50B6905460C46AA
:1040280013B90025284638BD18B183690BB9FFF7C5
:104038004FFA144B9C421BD16C68B4F90C30002B1E
:10404800EFD0626ED00704D4990502D4A06DFFF7B3
:10405800DDFA28462146FFF759FF636E0546DA0761
:10406800E0D4A3899B05DDD4A06DFFF7D0FAD9E78A
:10407800054B9C4201D1AC68DFE7044B9C4208BF6A
:10408800EC68DAE7E443000804440008C443000885
:1040980038B50446084611460022054D2A601A46DE
:1040A80000F01EF9431C02D12B6803B1236038BD10
:1040B8007402002070B50E46B1F90E10144600299E
:1040C8001D4696B007DA00232B60B3891A0610D470
:1040D8004FF480630EE06A4600F0C8F80028F2DB6F
:1040E800019A02F47042A2F500535A425A412A60DA
:1040F800EEE740230020236016B070BD8B8973B5AE
:104108009D0706460C4607D504F147032360236143
:104118000123636102B070BD6A4601ABFFF7CAFFB5
:10412800009905463046FFF773FA48B9B4F90C30E0
:104138009A05EFD423F0030343F00203A381E3E7D6
:104148000D4BB362A389206043F08003A381009BD9
:1041580020616361019B5BB13046B4F90E1000F039
:1041680097F828B1A38923F0030343F00103A3813F
:10417800A0890543A581CDE771340008034610B531
:10418800C9B202449342184601D1002003E00478E2
:1041980001338C42F6D110BD0148FFF737BA00BF92
:1041A8006C0200200148FFF732BA00BF6C02002001
:1041B80038B50546002943D051F8043C0C1F002BA4
:1041C800B8BFE418FFF7E8FF1E4A1368104633B972
:1041D800636014602846BDE83840FFF7E3BFA34298
:1041E8000AD921686218934201BF1A685B6852189D
:1041F800226063600460EDE71A465B680BB1A34276
:10420800FAD911685018A0420BD1206801445018FF
:1042180083421160DED118685B6801441160536005
:10422800D8E702D90C232B60D4E7206821188B42E9
:1042380001BF19685B680918216063605460C9E7A9
:1042480038BD00BF8C00002038B50446084611462A
:104258000022054D2A601A4600F04AF8431C02D194
:104268002B6803B1236038BD7402002038B50023E1
:10427800064D0446084611462B6000F021F8431C01
:1042880002D12B6803B1236038BD00BF740200203F
:1042980038B50023054D044608462B6000F018F891
:1042A800431C02D12B6803B1236038BD740200207F
:1042B8005822024B4FF0FF301A60704774020020FA
:1042C8005822024B4FF0FF301A60704774020020EA
:1042D8005822024B00201A60704700BF7402002069
:1042E8005822024B4FF0FF301A60704774020020CA
:1042F8005822024B4FF0FF301A60704774020020BA
:10430800044A05491368002B08BF0B46184410607F
:104318001846704794000020780200205822024B6B
:104328004FF0FF301A60704774020020F8B500BFE4
:10433800F8BC08BC9E467047F8B500BFF8BC08BC7E
:044348009E467047D6
:10434C00000000000000000054656D703A2025321A
:10435C002E3166200D0A00005B096D61696E5D539C
:10436C006C617665323A763D252E33660D0A000077
:10437C005B096D61696E5D4D61737465723A763D72
:10438C00252E33660D0A00000203040506070809F2
:10439C000A0B0C0D0E0F10100000000000000000A6
:1043AC0000000000010203040607080900000000D9
:1043BC0001020304100000200000000000000000B7
:1043CC0000000000000000000000000000000000E1
:1043DC0000000000000000000000000000000000D1
:1043EC0000000000000000000000000000000000C1
:1043FC0000000000000000000000000000000000B1
:10440C0000000000000000000000000000000000A0
:10441C000000000000000000232D302B2000686CF1
:10442C004C006566674546470030313233343536CB
:10443C003738394142434445460030313233343504
:0C444C0036373839616263646566000031
:044458005D0B0008F0
:04445C00390B000810
:1044600001000000100000000024F40010000020F3
:1044700000000000E443000804440008C4430008AE
:10448000000000000000000000000000000000002C
:10449000000000000000000000000000000000001C
:1044A000000000000000000000000000000000000C
:1044B00000000000000000000000000000000000FC
:1044C00000000000000000000000000000000000EC
:040000050800335567
:00000001FF
